{
  "contractName": "Authors",
  "abi": [
    {
      "inputs": [
        {
          "name": "_userContractaddress",
          "type": "address"
        }
      ],
      "payable": false,
      "stateMutability": "nonpayable",
      "type": "constructor"
    },
    {
      "anonymous": false,
      "inputs": [
        {
          "indexed": false,
          "name": "paperId",
          "type": "uint32"
        },
        {
          "indexed": false,
          "name": "authorId",
          "type": "address"
        },
        {
          "indexed": false,
          "name": "paperContractId",
          "type": "address"
        }
      ],
      "name": "addPaper",
      "type": "event"
    },
    {
      "constant": false,
      "inputs": [
        {
          "name": "_paperid",
          "type": "uint32"
        },
        {
          "name": "_authorAddress",
          "type": "address"
        }
      ],
      "name": "addPaperInUserFolder",
      "outputs": [],
      "payable": false,
      "stateMutability": "nonpayable",
      "type": "function"
    },
    {
      "constant": true,
      "inputs": [],
      "name": "getAllPaperIds",
      "outputs": [
        {
          "name": "_paperIds",
          "type": "uint32[]"
        }
      ],
      "payable": false,
      "stateMutability": "view",
      "type": "function"
    },
    {
      "constant": true,
      "inputs": [],
      "name": "getNumUsers",
      "outputs": [
        {
          "name": "",
          "type": "uint256"
        }
      ],
      "payable": false,
      "stateMutability": "view",
      "type": "function"
    },
    {
      "constant": true,
      "inputs": [],
      "name": "verifyUser",
      "outputs": [
        {
          "name": "ret",
          "type": "bool"
        }
      ],
      "payable": false,
      "stateMutability": "view",
      "type": "function"
    }
  ],
  "bytecode": "0x608060405234801561001057600080fd5b5060405160208061069e8339810180604052602081101561003057600080fd5b810190808051906020019092919050505080600160006101000a81548173ffffffffffffffffffffffffffffffffffffffff021916908373ffffffffffffffffffffffffffffffffffffffff160217905550600160009054906101000a900473ffffffffffffffffffffffffffffffffffffffff166000806101000a81548173ffffffffffffffffffffffffffffffffffffffff021916908373ffffffffffffffffffffffffffffffffffffffff160217905550506105aa806100f46000396000f3fe608060405260043610610062576000357c0100000000000000000000000000000000000000000000000000000000900463ffffffff16806305a8256c1461006757806365f88c0d146100c857806395407482146100f3578063f09bc69314610122575b600080fd5b34801561007357600080fd5b506100c66004803603604081101561008a57600080fd5b81019080803563ffffffff169060200190929190803573ffffffffffffffffffffffffffffffffffffffff16906020019092919050505061018e565b005b3480156100d457600080fd5b506100dd61032b565b6040518082815260200191505060405180910390f35b3480156100ff57600080fd5b506101086103f0565b604051808215151515815260200191505060405180910390f35b34801561012e57600080fd5b506101376104b5565b6040518080602001828103825283818151815260200191508051906020019060200280838360005b8381101561017a57808201518184015260208101905061015f565b505050509050019250505060405180910390f35b6000600260008373ffffffffffffffffffffffffffffffffffffffff1673ffffffffffffffffffffffffffffffffffffffff168152602001908152602001600020905060008160000190508084908060018154018082558091505090600182039060005260206000209060089182820401919006600402909192909190916101000a81548163ffffffff021916908363ffffffff1602179055505081600101600081819054906101000a900463ffffffff168092919060010191906101000a81548163ffffffff021916908363ffffffff160217905550507f99cf9fcb85c3f0265f7eb847cc92b6b31d84af790c37cd2ef9ce84a36c31e7d78260010160009054906101000a900463ffffffff163233604051808463ffffffff1663ffffffff1681526020018373ffffffffffffffffffffffffffffffffffffffff1673ffffffffffffffffffffffffffffffffffffffff1681526020018273ffffffffffffffffffffffffffffffffffffffff1673ffffffffffffffffffffffffffffffffffffffff168152602001935050505060405180910390a150505050565b60008060009054906101000a900473ffffffffffffffffffffffffffffffffffffffff1673ffffffffffffffffffffffffffffffffffffffff1663753c49c46040518163ffffffff167c010000000000000000000000000000000000000000000000000000000002815260040160206040518083038186803b1580156103b057600080fd5b505afa1580156103c4573d6000803e3d6000fd5b505050506040513d60208110156103da57600080fd5b8101908080519060200190929190505050905090565b60008060009054906101000a900473ffffffffffffffffffffffffffffffffffffffff1673ffffffffffffffffffffffffffffffffffffffff16636750b4a66040518163ffffffff167c010000000000000000000000000000000000000000000000000000000002815260040160206040518083038186803b15801561047557600080fd5b505afa158015610489573d6000803e3d6000fd5b505050506040513d602081101561049f57600080fd5b8101908080519060200190929190505050905090565b606080600260003373ffffffffffffffffffffffffffffffffffffffff1673ffffffffffffffffffffffffffffffffffffffff16815260200190815260200160002060000180548060200260200160405190810160405280929190818152602001828054801561057057602002820191906000526020600020906000905b82829054906101000a900463ffffffff1663ffffffff16815260200190600401906020826003010492830192600103820291508084116105335790505b50505050509050809150509056fea165627a7a7230582063125666267156d986df1c645cf8fd51ea01ab12641a7d9ed5e3f8dbf90e046e0029",
  "source": "pragma solidity ^0.5.0;\r\nimport \"./Users.sol\";\r\n\r\ncontract Authors{\r\n\r\n    // user contract object\r\n    Users userContract;\r\n\r\n    // user contract address\r\n    address userContractAddress;\r\n\r\n    // when a paper gets added under a author address then this event gets fire\r\n    event addPaper(uint32 paperId,address authorId, address paperContractId);\r\n\r\n    // Folder structure to hold multiple paper ids\r\n    struct Folder {\r\n        uint32 [] paperIds;\r\n        uint32 totalPapers;\r\n    }\r\n\r\n    // an author address can have a folder which can have more than one paper informations\r\n    mapping (address => Folder) private paperReferences;\r\n\r\n\r\n    /** @dev the constructor simply gets the user contract address and store it in the user contract address\r\n     *       this address is later used for initializing the user contract.\r\n     * @param   _userContractaddress must be the existing deployed user contract address\r\n     */\r\n    constructor(address _userContractaddress) public {\r\n\r\n        userContractAddress =_userContractaddress;\r\n        userContract = Users(userContractAddress);\r\n    }\r\n\r\n    /*\r\n        modifier onlyAuthorRole() {\r\n            require(user_detail[msg.sender].exists,\" User not authorized or registerd user\");\r\n            _;\r\n        }\r\n    */\r\n\r\n\r\n    /** @dev addPaperInUserFolder -  This function is used for adding a new paper under the author's name. For this the\r\n     * the paperReference stores the paperid under the author's address by calling. The returned storage acts like a\r\n     * folder for the the user. Where a user can hold more than one paper ids under their address.\r\n     * @param  _paperid  paper id which must be stored under author's address\r\n     * @param  _authorAddress  the author address\r\n     */\r\n    function addPaperInUserFolder(uint32 _paperid,address _authorAddress) public //returns(uint32)// onlyAuthorRole public\r\n    {\r\n        //call the paper contract to add new stuff\r\n        // get unique folder\r\n        Folder storage folder = paperReferences[_authorAddress];\r\n\r\n        uint32[] storage paperId = folder.paperIds;\r\n\r\n        paperId.push(_paperid); //by default it will store value from 0 portion and then it will move on automatically you do not need specifically to mention element idenx like paperId[index]\r\n\r\n        folder.totalPapers++;\r\n\r\n        emit addPaper(folder.totalPapers,tx.origin,msg.sender);\r\n    }\r\n\r\n\r\n    /** @dev getAllPaperIds -  This function returns all the paper ids associated to the calling address or user.\r\n     * @return uint32[]  _paperIds  The array of paper ids.\r\n     */\r\n    function getAllPaperIds() public view returns (uint32[] memory _paperIds)\r\n    {\r\n        uint32 [] memory paperIds = paperReferences[msg.sender].paperIds;\r\n\r\n        return paperIds;\r\n    }\r\n\r\n\r\n    /** @dev getNumUsers -  returns number of users by calling inter-contract-calls to User contract\r\n     * @return uint  number of users\r\n     */\r\n    function getNumUsers() public view returns(uint )\r\n    {\r\n        return userContract.getNumberofUsers();\r\n    }\r\n\r\n\r\n    /** @dev verifyUser -  verufy if the calling user is a registered user or non-registered . by calling inter-contract-calls to User contract\r\n     * @return bool    true if user is registered else false.\r\n     */\r\n    function verifyUser() public view returns(bool ret)\r\n    {\r\n        return userContract.isUserExist_SmartCall();\r\n    }\r\n\r\n}\r\n",
  "sourcePath": "E:\\Final project\\Final project\\truffle\\contracts\\Authors.sol",
  "compiler": {
    "name": "solc",
    "version": "0.5.0+commit.1d4f565a.Emscripten.clang"
  },
  "schemaVersion": "3.4.16",
  "updatedAt": "2024-03-22T09:40:13.922Z",
  "networkType": "ethereum",
  "devdoc": {
    "methods": {
      "addPaperInUserFolder(uint32,address)": {
        "details": "addPaperInUserFolder -  This function is used for adding a new paper under the author's name. For this the\r the paperReference stores the paperid under the author's address by calling. The returned storage acts like a\r folder for the the user. Where a user can hold more than one paper ids under their address.\r",
        "params": {
          "_authorAddress": "the author address\r",
          "_paperid": "paper id which must be stored under author's address\r"
        }
      },
      "constructor": {
        "details": "the constructor simply gets the user contract address and store it in the user contract address\r      this address is later used for initializing the user contract.\r",
        "params": {
          "_userContractaddress": "must be the existing deployed user contract address\r"
        }
      },
      "getAllPaperIds()": {
        "details": "getAllPaperIds -  This function returns all the paper ids associated to the calling address or user.\r",
        "return": "uint32[]  _paperIds  The array of paper ids.\r"
      },
      "getNumUsers()": {
        "details": "getNumUsers -  returns number of users by calling inter-contract-calls to User contract\r",
        "return": "uint  number of users\r"
      },
      "verifyUser()": {
        "details": "verifyUser -  verufy if the calling user is a registered user or non-registered . by calling inter-contract-calls to User contract\r",
        "return": "bool    true if user is registered else false.\r"
      }
    }
  },
  "userdoc": {
    "methods": {}
  }
}