{
  "contractName": "Reviewers",
  "abi": [
    {
      "inputs": [
        {
          "name": "_userContractAddress",
          "type": "address"
        },
        {
          "name": "_paperContractAddress",
          "type": "address"
        }
      ],
      "payable": false,
      "stateMutability": "nonpayable",
      "type": "constructor"
    },
    {
      "anonymous": false,
      "inputs": [
        {
          "indexed": false,
          "name": "paperId",
          "type": "uint32"
        },
        {
          "indexed": false,
          "name": "versionid",
          "type": "uint32"
        },
        {
          "indexed": false,
          "name": "reviewdDocCid",
          "type": "string"
        }
      ],
      "name": "addReviewEvent",
      "type": "event"
    },
    {
      "constant": false,
      "inputs": [
        {
          "name": "_paperid",
          "type": "uint32"
        },
        {
          "name": "_version",
          "type": "uint32"
        },
        {
          "name": "_reviewerComments",
          "type": "string"
        },
        {
          "name": "_reviewerCid",
          "type": "string"
        },
        {
          "name": "_status",
          "type": "uint256"
        }
      ],
      "name": "addPaperReview",
      "outputs": [],
      "payable": false,
      "stateMutability": "nonpayable",
      "type": "function"
    },
    {
      "constant": true,
      "inputs": [
        {
          "name": "_paperid",
          "type": "uint32"
        },
        {
          "name": "_version",
          "type": "uint32"
        }
      ],
      "name": "getPaperReview",
      "outputs": [
        {
          "name": "_reviewercomments",
          "type": "string"
        },
        {
          "name": "_cid",
          "type": "string"
        },
        {
          "name": "_reviewer",
          "type": "address"
        },
        {
          "name": "status",
          "type": "uint256"
        }
      ],
      "payable": false,
      "stateMutability": "view",
      "type": "function"
    },
    {
      "constant": false,
      "inputs": [
        {
          "name": "_paperId",
          "type": "uint256"
        },
        {
          "name": "_status",
          "type": "uint8"
        }
      ],
      "name": "setPaperStatus",
      "outputs": [],
      "payable": false,
      "stateMutability": "nonpayable",
      "type": "function"
    },
    {
      "constant": false,
      "inputs": [
        {
          "name": "_keyword",
          "type": "bytes32"
        }
      ],
      "name": "addReviewerInterestedInKeyword",
      "outputs": [],
      "payable": false,
      "stateMutability": "nonpayable",
      "type": "function"
    },
    {
      "constant": true,
      "inputs": [
        {
          "name": "_keyword",
          "type": "bytes32"
        }
      ],
      "name": "getAllReviewerInterestedInKeyword",
      "outputs": [
        {
          "name": "reviewerArray",
          "type": "address[]"
        }
      ],
      "payable": false,
      "stateMutability": "view",
      "type": "function"
    },
    {
      "constant": true,
      "inputs": [
        {
          "name": "_keyword",
          "type": "bytes32"
        }
      ],
      "name": "isReviewerAlreadyAddedInKeywordList",
      "outputs": [
        {
          "name": "isexist",
          "type": "bool"
        }
      ],
      "payable": false,
      "stateMutability": "view",
      "type": "function"
    }
  ],
  "bytecode": "0x608060405234801561001057600080fd5b506040516040806113238339810180604052604081101561003057600080fd5b81019080805190602001909291908051906020019092919050505081600160006101000a81548173ffffffffffffffffffffffffffffffffffffffff021916908373ffffffffffffffffffffffffffffffffffffffff160217905550600160009054906101000a900473ffffffffffffffffffffffffffffffffffffffff166000806101000a81548173ffffffffffffffffffffffffffffffffffffffff021916908373ffffffffffffffffffffffffffffffffffffffff16021790555080600360006101000a81548173ffffffffffffffffffffffffffffffffffffffff021916908373ffffffffffffffffffffffffffffffffffffffff160217905550600360009054906101000a900473ffffffffffffffffffffffffffffffffffffffff16600260006101000a81548173ffffffffffffffffffffffffffffffffffffffff021916908373ffffffffffffffffffffffffffffffffffffffff1602179055505050611180806101a36000396000f3fe608060405260043610610078576000357c0100000000000000000000000000000000000000000000000000000000900463ffffffff1680633d4594951461007d57806343d1bf7f146100d057806351ba66c214610259578063728338b5146103c9578063c1aac0e214610411578063fa26ccb51461044c575b600080fd5b34801561008957600080fd5b506100b6600480360360208110156100a057600080fd5b81019080803590602001909291905050506104dc565b604051808215151515815260200191505060405180910390f35b3480156100dc57600080fd5b50610257600480360360a08110156100f357600080fd5b81019080803563ffffffff169060200190929190803563ffffffff1690602001909291908035906020019064010000000081111561013057600080fd5b82018360208201111561014257600080fd5b8035906020019184600183028401116401000000008311171561016457600080fd5b91908080601f016020809104026020016040519081016040528093929190818152602001838380828437600081840152601f19601f820116905080830192505050505050509192919290803590602001906401000000008111156101c757600080fd5b8201836020820111156101d957600080fd5b803590602001918460018302840111640100000000831117156101fb57600080fd5b91908080601f016020809104026020016040519081016040528093929190818152602001838380828437600081840152601f19601f820116905080830192505050505050509192919290803590602001909291905050506105b6565b005b34801561026557600080fd5b506102a86004803603604081101561027c57600080fd5b81019080803563ffffffff169060200190929190803563ffffffff16906020019092919050505061093d565b6040518080602001806020018573ffffffffffffffffffffffffffffffffffffffff1673ffffffffffffffffffffffffffffffffffffffff168152602001848152602001838103835287818151815260200191508051906020019080838360005b83811015610324578082015181840152602081019050610309565b50505050905090810190601f1680156103515780820380516001836020036101000a031916815260200191505b50838103825286818151815260200191508051906020019080838360005b8381101561038a57808201518184015260208101905061036f565b50505050905090810190601f1680156103b75780820380516001836020036101000a031916815260200191505b50965050505050505060405180910390f35b3480156103d557600080fd5b5061040f600480360360408110156103ec57600080fd5b8101908080359060200190929190803560ff169060200190929190505050610bb6565b005b34801561041d57600080fd5b5061044a6004803603602081101561043457600080fd5b8101908080359060200190929190505050610c79565b005b34801561045857600080fd5b506104856004803603602081101561046f57600080fd5b8101908080359060200190929190505050610da3565b6040518080602001828103825283818151815260200191508051906020019060200280838360005b838110156104c85780820151818401526020810190506104ad565b505050509050019250505060405180910390f35b600080600460008481526020019081526020016000208054905011156105ac57600060046000848152602001908152602001600020905060008090505b81805490508110156105a9573373ffffffffffffffffffffffffffffffffffffffff16828281548110151561054a57fe5b9060005260206000200160009054906101000a900473ffffffffffffffffffffffffffffffffffffffff1673ffffffffffffffffffffffffffffffffffffffff16141561059c576001925050506105b1565b8080600101915050610519565b50505b600090505b919050565b6105be610e44565b1515610658576040517f08c379a00000000000000000000000000000000000000000000000000000000081526004018080602001828103825260238152602001807f55736572206d757374206265206578697374656e7420696e207468652073797381526020017f74656d000000000000000000000000000000000000000000000000000000000081525060400191505060405180910390fd5b6106678563ffffffff16610f09565b1515610701576040517f08c379a00000000000000000000000000000000000000000000000000000000081526004018080602001828103825260278152602001807f5061706572206964206d757374206265206578697374656e7420696e2074686581526020017f2073797374656d0000000000000000000000000000000000000000000000000081525060400191505060405180910390fd5b6107108563ffffffff16610fdc565b15156107aa576040517f08c379a000000000000000000000000000000000000000000000000000000000815260040180806020018281038252602a8152602001807f5265766965776572206d75737420626520657869737465627420666f7220746881526020017f697320706170657269640000000000000000000000000000000000000000000081525060400191505060405180910390fd5b6000600560008763ffffffff1663ffffffff168152602001908152602001600020905060008160000160008763ffffffff1663ffffffff16815260200190815260200160002090508481600101908051906020019061080a9291906110af565b50338160000160006101000a81548173ffffffffffffffffffffffffffffffffffffffff021916908373ffffffffffffffffffffffffffffffffffffffff160217905550838160020190805190602001906108669291906110af565b508281600301819055507f15610bd3d362e9dfe9888c78f2a6e16ea435597bcd0b272361fc98ae2f998ae1878786604051808463ffffffff1663ffffffff1681526020018363ffffffff1663ffffffff16815260200180602001828103825283818151815260200191508051906020019080838360005b838110156108f85780820151818401526020810190506108dd565b50505050905090810190601f1680156109255780820380516001836020036101000a031916815260200191505b5094505050505060405180910390a150505050505050565b606080600080600560008763ffffffff1663ffffffff16815260200190815260200160002060000160008663ffffffff1663ffffffff168152602001908152602001600020600101600560008863ffffffff1663ffffffff16815260200190815260200160002060000160008763ffffffff1663ffffffff168152602001908152602001600020600201600560008963ffffffff1663ffffffff16815260200190815260200160002060000160008863ffffffff1663ffffffff16815260200190815260200160002060000160009054906101000a900473ffffffffffffffffffffffffffffffffffffffff16600560008a63ffffffff1663ffffffff16815260200190815260200160002060000160008963ffffffff1663ffffffff16815260200190815260200160002060030154838054600181600116156101000203166002900480601f016020809104026020016040519081016040528092919081815260200182805460018160011615610100020316600290048015610b025780601f10610ad757610100808354040283529160200191610b02565b820191906000526020600020905b815481529060010190602001808311610ae557829003601f168201915b50505050509350828054600181600116156101000203166002900480601f016020809104026020016040519081016040528092919081815260200182805460018160011615610100020316600290048015610b9e5780601f10610b7357610100808354040283529160200191610b9e565b820191906000526020600020905b815481529060010190602001808311610b8157829003601f168201915b50505050509250935093509350935092959194509250565b600260009054906101000a900473ffffffffffffffffffffffffffffffffffffffff1673ffffffffffffffffffffffffffffffffffffffff1663698e4f5483836040518363ffffffff167c01000000000000000000000000000000000000000000000000000000000281526004018083815260200182600a811115610c3757fe5b60ff16815260200192505050600060405180830381600087803b158015610c5d57600080fd5b505af1158015610c71573d6000803e3d6000fd5b505050505050565b60001515610c86826104dc565b1515141515610d23576040517f08c379a00000000000000000000000000000000000000000000000000000000081526004018080602001828103825260318152602001807f52657669657765722068617320616c726561647920616464656420686973206981526020017f6e7465726573746564206b6579776f726400000000000000000000000000000081525060400191505060405180910390fd5b6000600460008381526020019081526020016000209050803390806001815401808255809150509060018203906000526020600020016000909192909190916101000a81548173ffffffffffffffffffffffffffffffffffffffff021916908373ffffffffffffffffffffffffffffffffffffffff160217905550505050565b606060046000838152602001908152602001600020805480602002602001604051908101604052809291908181526020018280548015610e3857602002820191906000526020600020905b8160009054906101000a900473ffffffffffffffffffffffffffffffffffffffff1673ffffffffffffffffffffffffffffffffffffffff1681526020019060010190808311610dee575b50505050509050919050565b60008060009054906101000a900473ffffffffffffffffffffffffffffffffffffffff1673ffffffffffffffffffffffffffffffffffffffff16636750b4a66040518163ffffffff167c010000000000000000000000000000000000000000000000000000000002815260040160206040518083038186803b158015610ec957600080fd5b505afa158015610edd573d6000803e3d6000fd5b505050506040513d6020811015610ef357600080fd5b8101908080519060200190929190505050905090565b6000600260009054906101000a900473ffffffffffffffffffffffffffffffffffffffff1673ffffffffffffffffffffffffffffffffffffffff1663b4066614836040518263ffffffff167c01000000000000000000000000000000000000000000000000000000000281526004018082815260200191505060206040518083038186803b158015610f9a57600080fd5b505afa158015610fae573d6000803e3d6000fd5b505050506040513d6020811015610fc457600080fd5b81019080805190602001909291905050509050919050565b6000600260009054906101000a900473ffffffffffffffffffffffffffffffffffffffff1673ffffffffffffffffffffffffffffffffffffffff1663c8d0e05a836040518263ffffffff167c01000000000000000000000000000000000000000000000000000000000281526004018082815260200191505060206040518083038186803b15801561106d57600080fd5b505afa158015611081573d6000803e3d6000fd5b505050506040513d602081101561109757600080fd5b81019080805190602001909291905050509050919050565b828054600181600116156101000203166002900490600052602060002090601f016020900481019282601f106110f057805160ff191683800117855561111e565b8280016001018555821561111e579182015b8281111561111d578251825591602001919060010190611102565b5b50905061112b919061112f565b5090565b61115191905b8082111561114d576000816000905550600101611135565b5090565b9056fea165627a7a723058208b45a8ddea5c538d80c636b345a1873abb469650c5993a4fd442391bf2a069720029",
  "source": "pragma solidity ^0.5.0;\r\nimport \"./Users.sol\";\r\nimport \"./papers.sol\";\r\n\r\ncontract Reviewers{\r\n\r\n    // User contract object\r\n    Users userContract;\r\n\r\n    // User contract deployed address\r\n    address userContractAddress;\r\n\r\n    // Paper contract object\r\n    Papers paperContract;\r\n\r\n    // Paper contract deployed address\r\n    address paperContractAddress;\r\n\r\n    // Event that is fired when a new review gets added by the reviewer on any paper\r\n    event addReviewEvent(uint32 paperId,uint32 versionid, string reviewdDocCid);\r\n\r\n\r\n    // a single keyword can be interested by more than one reviewers\r\n    // e.g. \"cybersecurity\" keyword interested by Address1 and Address 2\r\n    mapping (bytes32 =>address[]) private interestedKeywordReviewers;\r\n\r\n\r\n    /// Begin: Data structures for reviewed paper --------------------------------------------\r\n\r\n    // a single reviewed data included reviewer's address, comments, and CID of IPFS file along paper status\r\n    struct ReviewData\r\n    {\r\n        address reviewerAddress;\r\n        string  reviewerComments;\r\n        string  reviewerEditedCid;\r\n        uint status;\r\n    }\r\n\r\n    // a single version has single reviewed data : Note ( We are not saving multiple reviewer's comments for a single version at this moment)\r\n    struct Versions {\r\n        mapping(uint32 =>ReviewData) versionBasedData;\r\n    }\r\n\r\n    /// paperid associated with version and version is associated with recommednation , cid and ratings\r\n    /// Since a paper may have more than one versions and each version might have comments and seprate cid there for\r\n    /// paperBasedVersion (paperId) -> Many Versions -> Each version has ReviewData ( Comments + CID )\r\n    /// paperBasedVersions[_paperid].versionBasedData[_version].\r\n    mapping (uint32 =>Versions) private paperBasedVersions;\r\n\r\n    /// End: Data structures for reviewed paper -------------------------------------------------\r\n\r\n\r\n    /** @dev the constructor simply gets the author contract address and store it in the authors contract object.\r\n    *       this address is later used for initializing the author contract.\r\n    * @param _userContractAddress must be the existing deployed Author contract address\r\n    * @param _paperContractAddress must be the existing deployed paper contract address\r\n    */\r\n    constructor(address _userContractAddress,address _paperContractAddress) public {\r\n\r\n        userContractAddress =_userContractAddress;\r\n        userContract = Users(userContractAddress);\r\n\r\n        paperContractAddress =_paperContractAddress;\r\n        paperContract = Papers(paperContractAddress);\r\n    }\r\n\r\n    /** @dev addPaperReview -  This function verify registered reviewer and verify paper existence. Then it allows to\r\n     *                        add the comment, status and cid hash file against the paper id.\r\n     *  @param   _paperid            Paper ID, or which reviewed data being added\r\n     *  @param   _version            Paper version, for which reviewed data being added\r\n     *  @param   _reviewerComments   complete comments\r\n     *  @param   _reviewerCid        remarked document hash cid from IPFS\r\n     *  @param   _status             Status of the paper given by the reviewer e.g. passed , reject or resubmit.\r\n     */\r\n    function addPaperReview(uint32 _paperid,uint32  _version,string memory _reviewerComments,string memory _reviewerCid,uint _status) public\r\n    {\r\n        //call the paper contract to add new stuff\r\n        // get unique folder\r\n\r\n        require(verifyUser(),\"User must be existent in the system\");\r\n        require(verifyPaper(_paperid),\"Paper id must be existent in the system\");\r\n        require(verifyReviewer(_paperid),\"Reviewer must be existebt for this paperid\");\r\n\r\n        Versions storage version = paperBasedVersions[_paperid];\r\n\r\n        ReviewData storage reviewData = version.versionBasedData[_version];\r\n\r\n        reviewData.reviewerComments = _reviewerComments;\r\n\r\n        reviewData.reviewerAddress = msg.sender;\r\n\r\n        reviewData.reviewerEditedCid = _reviewerCid;\r\n\r\n        reviewData.status = _status;\r\n\r\n        emit addReviewEvent(_paperid,_version,_reviewerCid);\r\n    }\r\n\r\n\r\n    /** @dev getPaperReview -  get the reviewing data based on the paper and paper's version.\r\n     *  @param     _paperid            Paper ID , the target paper\r\n     *  @param     _version            Paper version , the targetted version of the paper\r\n     *  @return    _reviewerComments   complete comments\r\n     *  @return    _reviewerCid        remarked document hash cid from IPFS\r\n     *  @return   _reviewer        remarked document hash cid from IPFS\r\n     *  @return   _status             Status of the paper given by the reviewer e.g. passed , reject or resubmit.\r\n     */\r\n    function getPaperReview(uint32 _paperid,uint32 _version) public view returns (string memory _reviewercomments,string memory _cid, address _reviewer,uint status)\r\n    {\r\n        return  (paperBasedVersions[_paperid].versionBasedData[_version].reviewerComments,\r\n        paperBasedVersions[_paperid].versionBasedData[_version].reviewerEditedCid,\r\n        paperBasedVersions[_paperid].versionBasedData[_version].reviewerAddress,\r\n        paperBasedVersions[_paperid].versionBasedData[_version].status\r\n        );\r\n    }\r\n\r\n\r\n    /** @dev  the inter-contract communication to verify if the calling user is registered one or not in user contract\r\n    * @return bool  true if caller is registered else false if not.\r\n    */\r\n    function verifyUser() private view returns(bool ret)\r\n    {\r\n        return userContract.isUserExist_SmartCall();\r\n    }\r\n\r\n    /** @dev  The inter-contract communication to verify if the given paper id exist in the paper contract\r\n    * @param  _paperId   paper id\r\n    * @return bool    return true if paper exist else return false\r\n    */\r\n    function verifyPaper(uint _paperId ) private view returns(bool ret)\r\n    {\r\n        return paperContract.isPaperExist(_paperId);\r\n    }\r\n\r\n    /** @dev  verifyReviewer - The inter-contract communication to verify if the caller is allowed to review this paper\r\n    * @param  _paperId   paper id\r\n    * @return bool    return true if verifier allowed to review this paper else return false\r\n    */\r\n    function verifyReviewer(uint _paperId) view private returns(bool ret)\r\n    {\r\n        return paperContract.isReviewerAlreadyAssigned(_paperId);\r\n    }\r\n\r\n    /** @dev  setPaperStatus - The inter-contract communication to a new status against the paper e.g. resubmit,  reject or passed.\r\n    * @param  _paperId     Paper id\r\n    * @param  _status   Status e.g.   resubmit,  reject or passed.\r\n    */\r\n    function setPaperStatus(uint _paperId ,Papers.PaperStatus _status) public\r\n    {\r\n        paperContract.setPaperStatusByReviewer(_paperId,_status);\r\n    }\r\n\r\n\r\n    /// This is for my future work: The reviewer's can view latest paper requests based on their interested keywords\r\n    /// ####################################################################################################################################################\r\n    /// Begin: Data structures for reviewer's interesteted topic or keywords ---------------\r\n\r\n\r\n\r\n    /** @dev  addReviewerInterestedInKeyword - add the new caller as a reviewer if he is not enrolled to this keyword before m, otherwise reject him if he is already a part of this keyword\r\n     * @param _keyword    a single keyword to be added under reviewer's interest group\r\n     */\r\n    function addReviewerInterestedInKeyword(bytes32 _keyword) public {\r\n\r\n        require(isReviewerAlreadyAddedInKeywordList(_keyword)==false,\"Reviewer has already added his interested keyword\");\r\n\r\n        address[] storage rewvierArray = interestedKeywordReviewers[_keyword];\r\n\r\n        rewvierArray.push(msg.sender);\r\n    }\r\n\r\n    /** @dev  getAllReviewerInterestedInKeyword - get all those reviewers whose interest is in this following keyword\r\n    * @param  _keyword    a single keyword e.g. cybersecurity\r\n    * @return address[]  reviewers   list of reviewers who are interested in the given keywork\r\n    */\r\n    function getAllReviewerInterestedInKeyword(bytes32 _keyword) public view returns (address[] memory reviewerArray)\r\n    {\r\n        return interestedKeywordReviewers[_keyword];\r\n    }\r\n\r\n\r\n    /** @dev  isReviewerAlreadyAddedInKeywordList - check the keyword list if it has already this new caller or not.\r\n    * @param  _keyword    a single keyword e.g. cybersecurity\r\n    * @return bool       isexist     return true if keyword is already added under reviewer's address else false will return.\r\n    */\r\n    function isReviewerAlreadyAddedInKeywordList(bytes32 _keyword) public view returns (bool isexist)\r\n    {\r\n        if( interestedKeywordReviewers[_keyword].length>0)\r\n        {\r\n            address[] storage reviewerArray =  interestedKeywordReviewers[_keyword];\r\n\r\n            for(uint loop = 0; loop<reviewerArray.length;loop++)\r\n            {\r\n                if(reviewerArray[loop] == msg.sender)\r\n                    return true;\r\n            }\r\n        }\r\n\r\n        return false;\r\n    }\r\n\r\n    /// End: Data structures for reviewer's interesteted topic or keywords ---------------\r\n    /// ####################################################################################################################################################\r\n\r\n\r\n}\r\n",
  "sourcePath": "E:\\Final project\\Final project\\truffle\\contracts\\Reviewers.sol",
  "compiler": {
    "name": "solc",
    "version": "0.5.0+commit.1d4f565a.Emscripten.clang"
  },
  "schemaVersion": "3.4.16",
  "updatedAt": "2024-03-22T09:40:14.132Z",
  "networkType": "ethereum",
  "devdoc": {
    "methods": {
      "addPaperReview(uint32,uint32,string,string,uint256)": {
        "details": "addPaperReview -  This function verify registered reviewer and verify paper existence. Then it allows to\r                       add the comment, status and cid hash file against the paper id.\r",
        "params": {
          "_paperid": "Paper ID, or which reviewed data being added\r",
          "_reviewerCid": "remarked document hash cid from IPFS\r",
          "_reviewerComments": "complete comments\r",
          "_status": "Status of the paper given by the reviewer e.g. passed , reject or resubmit.\r",
          "_version": "Paper version, for which reviewed data being added\r"
        }
      },
      "addReviewerInterestedInKeyword(bytes32)": {
        "details": "addReviewerInterestedInKeyword - add the new caller as a reviewer if he is not enrolled to this keyword before m, otherwise reject him if he is already a part of this keyword\r",
        "params": {
          "_keyword": "a single keyword to be added under reviewer's interest group\r"
        }
      },
      "constructor": {
        "details": "the constructor simply gets the author contract address and store it in the authors contract object.\r      this address is later used for initializing the author contract.\r",
        "params": {
          "_paperContractAddress": "must be the existing deployed paper contract address\r",
          "_userContractAddress": "must be the existing deployed Author contract address\r"
        }
      },
      "getAllReviewerInterestedInKeyword(bytes32)": {
        "details": "getAllReviewerInterestedInKeyword - get all those reviewers whose interest is in this following keyword\r",
        "params": {
          "_keyword": "a single keyword e.g. cybersecurity\r"
        },
        "return": "address[]  reviewers   list of reviewers who are interested in the given keywork\r"
      },
      "getPaperReview(uint32,uint32)": {
        "details": "getPaperReview -  get the reviewing data based on the paper and paper's version.\r",
        "params": {
          "_paperid": "Paper ID , the target paper\r",
          "_version": "Paper version , the targetted version of the paper\r"
        },
        "return": "_reviewerComments   complete comments\r_reviewerCid        remarked document hash cid from IPFS\r_reviewer        remarked document hash cid from IPFS\r_status             Status of the paper given by the reviewer e.g. passed , reject or resubmit.\r"
      },
      "isReviewerAlreadyAddedInKeywordList(bytes32)": {
        "details": "isReviewerAlreadyAddedInKeywordList - check the keyword list if it has already this new caller or not.\r",
        "params": {
          "_keyword": "a single keyword e.g. cybersecurity\r"
        },
        "return": "bool       isexist     return true if keyword is already added under reviewer's address else false will return.\r"
      },
      "setPaperStatus(uint256,uint8)": {
        "details": "setPaperStatus - The inter-contract communication to a new status against the paper e.g. resubmit,  reject or passed.\r",
        "params": {
          "_paperId": "Paper id\r",
          "_status": "Status e.g.   resubmit,  reject or passed.\r"
        }
      }
    }
  },
  "userdoc": {
    "methods": {}
  }
}