{
  "contractName": "Users",
  "abi": [
    {
      "inputs": [],
      "payable": false,
      "stateMutability": "nonpayable",
      "type": "constructor"
    },
    {
      "constant": false,
      "inputs": [
        {
          "name": "_role",
          "type": "uint8"
        },
        {
          "name": "_username",
          "type": "string"
        }
      ],
      "name": "registerUser",
      "outputs": [
        {
          "name": "",
          "type": "uint256"
        }
      ],
      "payable": false,
      "stateMutability": "nonpayable",
      "type": "function"
    },
    {
      "constant": true,
      "inputs": [],
      "name": "isUserExist",
      "outputs": [
        {
          "name": "",
          "type": "bool"
        }
      ],
      "payable": false,
      "stateMutability": "view",
      "type": "function"
    },
    {
      "constant": true,
      "inputs": [],
      "name": "getMessageSender",
      "outputs": [
        {
          "name": "",
          "type": "address"
        }
      ],
      "payable": false,
      "stateMutability": "view",
      "type": "function"
    },
    {
      "constant": true,
      "inputs": [],
      "name": "getNumberofUsers",
      "outputs": [
        {
          "name": "",
          "type": "uint256"
        }
      ],
      "payable": false,
      "stateMutability": "view",
      "type": "function"
    },
    {
      "constant": true,
      "inputs": [],
      "name": "getCurrentUserInformation",
      "outputs": [
        {
          "name": "role",
          "type": "uint8"
        },
        {
          "name": "fullname",
          "type": "string"
        }
      ],
      "payable": false,
      "stateMutability": "view",
      "type": "function"
    },
    {
      "constant": true,
      "inputs": [],
      "name": "getTestTxt",
      "outputs": [
        {
          "name": "",
          "type": "string"
        }
      ],
      "payable": false,
      "stateMutability": "view",
      "type": "function"
    },
    {
      "constant": false,
      "inputs": [
        {
          "name": "val",
          "type": "string"
        }
      ],
      "name": "getandSetTestTxt",
      "outputs": [
        {
          "name": "",
          "type": "string"
        }
      ],
      "payable": false,
      "stateMutability": "nonpayable",
      "type": "function"
    },
    {
      "constant": true,
      "inputs": [],
      "name": "isUserExist_SmartCall",
      "outputs": [
        {
          "name": "",
          "type": "bool"
        }
      ],
      "payable": false,
      "stateMutability": "view",
      "type": "function"
    }
  ],
  "bytecode": "0x608060405234801561001057600080fd5b506040805190810160405280601481526020017f7465737420737472696e6720746f20636865636b0000000000000000000000008152506001908051906020019061005c929190610062565b50610107565b828054600181600116156101000203166002900490600052602060002090601f016020900481019282601f106100a357805160ff19168380011785556100d1565b828001600101855582156100d1579182015b828111156100d05782518255916020019190600101906100b5565b5b5090506100de91906100e2565b5090565b61010491905b808211156101005760008160009055506001016100e8565b5090565b90565b610a8b806101166000396000f3fe60806040526004361061008e576000357c0100000000000000000000000000000000000000000000000000000000900463ffffffff1680636750b4a614610093578063753c49c4146100c257806376167a89146100ed578063775ed54d1461014457806377bc5468146101d45780638b20343f14610279578063d29bcc5c146102a8578063df64713a14610391575b600080fd5b34801561009f57600080fd5b506100a86104d2565b604051808215151515815260200191505060405180910390f35b3480156100ce57600080fd5b506100d761053a565b6040518082815260200191505060405180910390f35b3480156100f957600080fd5b50610102610543565b604051808273ffffffffffffffffffffffffffffffffffffffff1673ffffffffffffffffffffffffffffffffffffffff16815260200191505060405180910390f35b34801561015057600080fd5b5061015961054b565b6040518080602001828103825283818151815260200191508051906020019080838360005b8381101561019957808201518184015260208101905061017e565b50505050905090810190601f1680156101c65780820380516001836020036101000a031916815260200191505b509250505060405180910390f35b3480156101e057600080fd5b506101e96105ed565b604051808360028111156101f957fe5b60ff16815260200180602001828103825283818151815260200191508051906020019080838360005b8381101561023d578082015181840152602081019050610222565b50505050905090810190601f16801561026a5780820380516001836020036101000a031916815260200191505b50935050505060405180910390f35b34801561028557600080fd5b5061028e610727565b604051808215151515815260200191505060405180910390f35b3480156102b457600080fd5b5061037b600480360360408110156102cb57600080fd5b81019080803560ff169060200190929190803590602001906401000000008111156102f557600080fd5b82018360208201111561030757600080fd5b8035906020019184600183028401116401000000008311171561032957600080fd5b91908080601f016020809104026020016040519081016040528093929190818152602001838380828437600081840152601f19601f82011690508083019250505050505050919291929050505061078f565b6040518082815260200191505060405180910390f35b34801561039d57600080fd5b50610457600480360360208110156103b457600080fd5b81019080803590602001906401000000008111156103d157600080fd5b8201836020820111156103e357600080fd5b8035906020019184600183028401116401000000008311171561040557600080fd5b91908080601f016020809104026020016040519081016040528093929190818152602001838380828437600081840152601f19601f82011690508083019250505050505050919291929050505061087f565b6040518080602001828103825283818151815260200191508051906020019080838360005b8381101561049757808201518184015260208101905061047c565b50505050905090810190601f1680156104c45780820380516001836020036101000a031916815260200191505b509250505060405180910390f35b6000600260003273ffffffffffffffffffffffffffffffffffffffff1673ffffffffffffffffffffffffffffffffffffffff16815260200190815260200160002060010160019054906101000a900460ff16156105325760019050610537565b600090505b90565b60008054905090565b600033905090565b606060018054600181600116156101000203166002900480601f0160208091040260200160405190810160405280929190818152602001828054600181600116156101000203166002900480156105e35780601f106105b8576101008083540402835291602001916105e3565b820191906000526020600020905b8154815290600101906020018083116105c657829003601f168201915b5050505050905090565b60006060600260003373ffffffffffffffffffffffffffffffffffffffff1673ffffffffffffffffffffffffffffffffffffffff16815260200190815260200160002060010160009054906101000a900460ff16600260003373ffffffffffffffffffffffffffffffffffffffff1673ffffffffffffffffffffffffffffffffffffffff168152602001908152602001600020600001808054600181600116156101000203166002900480601f0160208091040260200160405190810160405280929190818152602001828054600181600116156101000203166002900480156107185780601f106106ed57610100808354040283529160200191610718565b820191906000526020600020905b8154815290600101906020018083116106fb57829003601f168201915b50505050509050915091509091565b6000600260003373ffffffffffffffffffffffffffffffffffffffff1673ffffffffffffffffffffffffffffffffffffffff16815260200190815260200160002060010160019054906101000a900460ff1615610787576001905061078c565b600090505b90565b60006060604051908101604052808381526020018460028111156107af57fe5b815260200160011515815250600260003373ffffffffffffffffffffffffffffffffffffffff1673ffffffffffffffffffffffffffffffffffffffff168152602001908152602001600020600082015181600001908051906020019061081692919061093a565b5060208201518160010160006101000a81548160ff0219169083600281111561083b57fe5b021790555060408201518160010160016101000a81548160ff0219169083151502179055509050506000808154809291906001019190505550600054905092915050565b606081600190805190602001906108979291906109ba565b5060018054600181600116156101000203166002900480601f01602080910402602001604051908101604052809291908181526020018280546001816001161561010002031660029004801561092e5780601f106109035761010080835404028352916020019161092e565b820191906000526020600020905b81548152906001019060200180831161091157829003601f168201915b50505050509050919050565b828054600181600116156101000203166002900490600052602060002090601f016020900481019282601f1061097b57805160ff19168380011785556109a9565b828001600101855582156109a9579182015b828111156109a857825182559160200191906001019061098d565b5b5090506109b69190610a3a565b5090565b828054600181600116156101000203166002900490600052602060002090601f016020900481019282601f106109fb57805160ff1916838001178555610a29565b82800160010185558215610a29579182015b82811115610a28578251825591602001919060010190610a0d565b5b509050610a369190610a3a565b5090565b610a5c91905b80821115610a58576000816000905550600101610a40565b5090565b9056fea165627a7a723058207fe6f313d1b799799ebd7e54ba5a5847934b476e3d8692ebf7f0b60630deb3690029",
  "source": "pragma solidity ^0.5.0;\r\n\r\ncontract Users {\r\n\r\n\r\n    enum Roles {AUTHOR,REVIEWER,RESEARCHER} // only three roles are provided and each user can have a single role\r\n\r\n    uint private userCount; // number of transactions is recorded in this variable\r\n\r\n    struct UserInfo\r\n    {\r\n        string name;\r\n        Roles  role;\r\n        bool exists;\r\n    } // a structure contains user Information like role associated with name\r\n\r\n    string  testString; // testing string (in future must be deleted)\r\n\r\n    mapping(address => UserInfo) internal user_detail; // An associated array of the user detail data with his account address\r\n\r\n    /** @dev the constructor simply added a testing string. Shall be removed in future this is just for testing purpose */\r\n    constructor() public {\r\n\r\n        testString = \"test string to check\";\r\n    }\r\n\r\n\r\n    /** @dev registerUser -  take the information like role and name, then it store against the caller's address.\r\n   *  @param _role          The role of the user which should be added\r\n   *  @param _username      The full name of the user\r\n   *  @return userCount     number of users added till now (On JS the return value will only be a transaction hash)\r\n   */\r\n    function registerUser(Roles _role,string memory _username)  public  returns(uint)\r\n    {\r\n        //  require(bytes(_username).length <= 50, \"Name is too long.\");\r\n        //  require(!user_detail[msg.sender].exists,\" Already registerd\");\r\n\r\n        user_detail[msg.sender] = UserInfo({name:_username,role:_role,exists:true});\r\n\r\n        userCount++;\r\n\r\n        return userCount;\r\n    }\r\n\r\n\r\n    /** @dev isUserExist -  Verify if the calling user is registered user or not.\r\n    *   @return boolean     true if registered user / false on non-registered user\r\n    */\r\n    function isUserExist() public view returns (bool)\r\n    {\r\n        if(user_detail[msg.sender].exists)\r\n            return true;\r\n\r\n        return false;\r\n    }\r\n\r\n    /** @dev getMessageSender -  testing function, shall be removed in future.\r\n   *   @return address     return the caller's address\r\n   */\r\n    function getMessageSender() public view returns (address)\r\n    {\r\n        return msg.sender;\r\n    }\r\n\r\n\r\n    /** @dev getNumberofUsers -  returns the number of registered user in this contract\r\n     *   @return uint     return total number of users\r\n     */\r\n    function getNumberofUsers()public view returns (uint)\r\n    {\r\n        return userCount;\r\n    }\r\n\r\n    /** @dev getCurrentUserInformation -  returns the role and fullname of the function caller\r\n    *   @return (Roles role, string memory fullname)\r\n    */\r\n    function getCurrentUserInformation() public view returns(Roles role, string memory fullname)\r\n    {\r\n        return (user_detail[msg.sender].role,user_detail[msg.sender].name);\r\n    }\r\n\r\n    /** @dev getTestTxt -  just a test function - shall be removed in future.\r\n    *   @return string testing message\r\n    */\r\n    function getTestTxt() public view returns(string memory)\r\n    {\r\n        return testString;\r\n    }\r\n\r\n    /** @dev getTestTxt -  just a test function - shall be removed in future.\r\n     *   @return string testing message\r\n     */\r\n    function getandSetTestTxt(string memory val) public returns(string memory )\r\n    {\r\n        testString = val;\r\n        return testString;\r\n    }\r\n\r\n\r\n    /** @dev isUserExist_SmartCall -  if a calling user is a registered user on this smart contract\r\n     *   @return bool       if user is registered then return true else false.\r\n     */\r\n    function isUserExist_SmartCall() external view returns (bool)\r\n    {\r\n        // if the main caller account exists or not.\r\n\r\n        if(user_detail[tx.origin].exists)\r\n            return true;\r\n\r\n        return false;\r\n    }\r\n}\r\n",
  "sourcePath": "E:\\Final project\\Final project\\truffle\\contracts\\Users.sol",
  "compiler": {
    "name": "solc",
    "version": "0.5.0+commit.1d4f565a.Emscripten.clang"
  },
  "schemaVersion": "3.4.16",
  "updatedAt": "2024-03-22T09:40:14.109Z",
  "networkType": "ethereum",
  "devdoc": {
    "methods": {
      "constructor": {
        "details": "the constructor simply added a testing string. Shall be removed in future this is just for testing purpose "
      },
      "getCurrentUserInformation()": {
        "details": "getCurrentUserInformation -  returns the role and fullname of the function caller\r",
        "return": "(Roles role, string memory fullname)\r"
      },
      "getMessageSender()": {
        "details": "getMessageSender -  testing function, shall be removed in future.\r",
        "return": "address     return the caller's address\r"
      },
      "getNumberofUsers()": {
        "details": "getNumberofUsers -  returns the number of registered user in this contract\r",
        "return": "uint     return total number of users\r"
      },
      "getTestTxt()": {
        "details": "getTestTxt -  just a test function - shall be removed in future.\r",
        "return": "string testing message\r"
      },
      "getandSetTestTxt(string)": {
        "details": "getTestTxt -  just a test function - shall be removed in future.\r",
        "return": "string testing message\r"
      },
      "isUserExist()": {
        "details": "isUserExist -  Verify if the calling user is registered user or not.\r",
        "return": "boolean     true if registered user / false on non-registered user\r"
      },
      "isUserExist_SmartCall()": {
        "details": "isUserExist_SmartCall -  if a calling user is a registered user on this smart contract\r",
        "return": "bool       if user is registered then return true else false.\r"
      },
      "registerUser(uint8,string)": {
        "details": "registerUser -  take the information like role and name, then it store against the caller's address.\r",
        "params": {
          "_role": "The role of the user which should be added\r",
          "_username": "The full name of the user\r"
        },
        "return": "userCount     number of users added till now (On JS the return value will only be a transaction hash)\r"
      }
    }
  },
  "userdoc": {
    "methods": {}
  }
}