{
  "contractName": "Papers",
  "abi": [
    {
      "constant": true,
      "inputs": [
        {
          "name": "",
          "type": "uint256"
        }
      ],
      "name": "submitterDetails",
      "outputs": [
        {
          "name": "submitterAddress",
          "type": "address"
        },
        {
          "name": "submitterName",
          "type": "string"
        },
        {
          "name": "submitterRole",
          "type": "string"
        }
      ],
      "payable": false,
      "stateMutability": "view",
      "type": "function"
    },
    {
      "inputs": [
        {
          "name": "_authorContractAddress",
          "type": "address"
        }
      ],
      "payable": false,
      "stateMutability": "nonpayable",
      "type": "constructor"
    },
    {
      "anonymous": false,
      "inputs": [
        {
          "indexed": false,
          "name": "paperid",
          "type": "uint32"
        },
        {
          "indexed": false,
          "name": "useraccount",
          "type": "address"
        }
      ],
      "name": "submittedPaper",
      "type": "event"
    },
    {
      "anonymous": false,
      "inputs": [
        {
          "indexed": false,
          "name": "paperid",
          "type": "uint256"
        },
        {
          "indexed": false,
          "name": "useraccount",
          "type": "address"
        }
      ],
      "name": "assignedReviewerEvent",
      "type": "event"
    },
    {
      "anonymous": false,
      "inputs": [
        {
          "indexed": true,
          "name": "paperId",
          "type": "uint256"
        },
        {
          "indexed": true,
          "name": "payer",
          "type": "address"
        },
        {
          "indexed": false,
          "name": "amount",
          "type": "uint256"
        }
      ],
      "name": "PaymentMade",
      "type": "event"
    },
    {
      "constant": false,
      "inputs": [
        {
          "name": "_ipfs",
          "type": "string"
        },
        {
          "name": "_title",
          "type": "string"
        },
        {
          "name": "_keywords",
          "type": "bytes32[]"
        },
        {
          "name": "_submitterRole",
          "type": "string"
        },
        {
          "name": "_userName",
          "type": "string"
        },
        {
          "name": "_paperOwner",
          "type": "address"
        }
      ],
      "name": "uploadNewPaper",
      "outputs": [],
      "payable": false,
      "stateMutability": "nonpayable",
      "type": "function"
    },
    {
      "constant": true,
      "inputs": [
        {
          "name": "_paperId",
          "type": "uint256"
        }
      ],
      "name": "getSubmitterDetails",
      "outputs": [
        {
          "name": "",
          "type": "address"
        },
        {
          "name": "",
          "type": "string"
        },
        {
          "name": "",
          "type": "string"
        }
      ],
      "payable": false,
      "stateMutability": "view",
      "type": "function"
    },
    {
      "constant": false,
      "inputs": [
        {
          "name": "_paper_id",
          "type": "uint32"
        },
        {
          "name": "_ipfs",
          "type": "string"
        },
        {
          "name": "_title",
          "type": "string"
        },
        {
          "name": "_keywords",
          "type": "bytes32[]"
        }
      ],
      "name": "uploadModifiedPaper",
      "outputs": [
        {
          "name": "",
          "type": "uint32"
        }
      ],
      "payable": false,
      "stateMutability": "nonpayable",
      "type": "function"
    },
    {
      "constant": true,
      "inputs": [],
      "name": "getLatestId",
      "outputs": [
        {
          "name": "",
          "type": "uint256"
        }
      ],
      "payable": false,
      "stateMutability": "view",
      "type": "function"
    },
    {
      "constant": true,
      "inputs": [
        {
          "name": "_paperId",
          "type": "uint256"
        }
      ],
      "name": "getPaperValues",
      "outputs": [
        {
          "name": "title",
          "type": "string"
        },
        {
          "name": "ipfscid",
          "type": "string"
        },
        {
          "name": "status",
          "type": "uint8"
        },
        {
          "name": "reviewers",
          "type": "address[]"
        },
        {
          "name": "keywords",
          "type": "bytes32[]"
        },
        {
          "name": "version",
          "type": "uint256"
        }
      ],
      "payable": false,
      "stateMutability": "view",
      "type": "function"
    },
    {
      "constant": true,
      "inputs": [
        {
          "name": "_paperId",
          "type": "uint256"
        },
        {
          "name": "version_number",
          "type": "uint256"
        }
      ],
      "name": "getVersionHistory",
      "outputs": [
        {
          "name": "",
          "type": "string"
        },
        {
          "name": "",
          "type": "uint8"
        }
      ],
      "payable": false,
      "stateMutability": "view",
      "type": "function"
    },
    {
      "constant": true,
      "inputs": [
        {
          "name": "_paperId",
          "type": "uint256"
        },
        {
          "name": "keywordIndex",
          "type": "uint256"
        }
      ],
      "name": "getPaperKeyword",
      "outputs": [
        {
          "name": "",
          "type": "bytes32"
        }
      ],
      "payable": false,
      "stateMutability": "view",
      "type": "function"
    },
    {
      "constant": false,
      "inputs": [
        {
          "name": "para1",
          "type": "bytes32"
        }
      ],
      "name": "getSetBytes32Test",
      "outputs": [],
      "payable": false,
      "stateMutability": "nonpayable",
      "type": "function"
    },
    {
      "constant": true,
      "inputs": [],
      "name": "getBytes32Test",
      "outputs": [
        {
          "name": "",
          "type": "bytes32"
        }
      ],
      "payable": false,
      "stateMutability": "view",
      "type": "function"
    },
    {
      "constant": true,
      "inputs": [],
      "name": "getAllLatestPapersIds",
      "outputs": [
        {
          "name": "ids",
          "type": "uint256[]"
        }
      ],
      "payable": false,
      "stateMutability": "view",
      "type": "function"
    },
    {
      "constant": true,
      "inputs": [],
      "name": "getAllPapersIds",
      "outputs": [
        {
          "name": "ids",
          "type": "uint256[]"
        }
      ],
      "payable": false,
      "stateMutability": "view",
      "type": "function"
    },
    {
      "constant": true,
      "inputs": [
        {
          "name": "_paperId",
          "type": "uint256"
        }
      ],
      "name": "isPaperExist",
      "outputs": [
        {
          "name": "ret",
          "type": "bool"
        }
      ],
      "payable": false,
      "stateMutability": "view",
      "type": "function"
    },
    {
      "constant": true,
      "inputs": [
        {
          "name": "_paperId",
          "type": "uint256"
        }
      ],
      "name": "isReviewerAlreadyAssigned",
      "outputs": [
        {
          "name": "ret",
          "type": "bool"
        }
      ],
      "payable": false,
      "stateMutability": "view",
      "type": "function"
    },
    {
      "constant": false,
      "inputs": [
        {
          "name": "_paperId",
          "type": "uint256"
        }
      ],
      "name": "assignReviewerToPaper",
      "outputs": [],
      "payable": false,
      "stateMutability": "nonpayable",
      "type": "function"
    },
    {
      "constant": false,
      "inputs": [
        {
          "name": "_paperId",
          "type": "uint256"
        },
        {
          "name": "_status",
          "type": "uint8"
        }
      ],
      "name": "setPaperStatusByReviewer",
      "outputs": [],
      "payable": false,
      "stateMutability": "nonpayable",
      "type": "function"
    },
    {
      "constant": true,
      "inputs": [
        {
          "name": "_paperId",
          "type": "uint256"
        }
      ],
      "name": "getReviewers",
      "outputs": [
        {
          "name": "",
          "type": "address[]"
        }
      ],
      "payable": false,
      "stateMutability": "view",
      "type": "function"
    },
    {
      "constant": false,
      "inputs": [
        {
          "name": "_paperId",
          "type": "uint256"
        }
      ],
      "name": "sendToReviewer",
      "outputs": [],
      "payable": false,
      "stateMutability": "nonpayable",
      "type": "function"
    },
    {
      "constant": false,
      "inputs": [
        {
          "name": "_paperId",
          "type": "uint256"
        }
      ],
      "name": "sendModifiedToReviewer",
      "outputs": [],
      "payable": false,
      "stateMutability": "nonpayable",
      "type": "function"
    },
    {
      "constant": false,
      "inputs": [
        {
          "name": "_paperId",
          "type": "uint256"
        }
      ],
      "name": "rejectPaper",
      "outputs": [],
      "payable": false,
      "stateMutability": "nonpayable",
      "type": "function"
    },
    {
      "constant": false,
      "inputs": [
        {
          "name": "_paperId",
          "type": "uint256"
        }
      ],
      "name": "sendForReSubmission",
      "outputs": [],
      "payable": false,
      "stateMutability": "nonpayable",
      "type": "function"
    },
    {
      "constant": false,
      "inputs": [
        {
          "name": "_paperId",
          "type": "uint256"
        }
      ],
      "name": "askForPayment",
      "outputs": [],
      "payable": false,
      "stateMutability": "nonpayable",
      "type": "function"
    },
    {
      "constant": false,
      "inputs": [
        {
          "name": "_paperId",
          "type": "uint256"
        }
      ],
      "name": "makePayment",
      "outputs": [],
      "payable": true,
      "stateMutability": "payable",
      "type": "function"
    }
  ],
  "bytecode": "0x608060405234801561001057600080fd5b506040516020806136b58339810180604052602081101561003057600080fd5b81019080805190602001909291905050506000600460006101000a81548163ffffffff021916908363ffffffff16021790555080600260006101000a81548173ffffffffffffffffffffffffffffffffffffffff021916908373ffffffffffffffffffffffffffffffffffffffff160217905550600260009054906101000a900473ffffffffffffffffffffffffffffffffffffffff16600160006101000a81548173ffffffffffffffffffffffffffffffffffffffff021916908373ffffffffffffffffffffffffffffffffffffffff16021790555033600660006101000a81548173ffffffffffffffffffffffffffffffffffffffff021916908373ffffffffffffffffffffffffffffffffffffffff1602179055505061355d806101586000396000f3fe608060405260043610610133576000357c0100000000000000000000000000000000000000000000000000000000900463ffffffff16806302a6afc81461013857806302afb4b41461030457806316a36e5e146103945780631ac7f217146104005780631ef580aa146106235780633af95f9c1461067c5780633fc1c34e1461074f57806340fc6ebf1461077a57806342d8fca914610abb5780635114cb5214610b2757806358e4727114610b55578063698e4f5414610b905780636b688e2514610bd857806395a1831214610c13578063a40e22c814610c4e578063aaef39e714610c89578063b406661414610cc4578063bfed752214610d17578063c8d0e05a14610d52578063dc89e94014610da5578063dd7b47d914610de0578063efdac57914610f33578063eff91c7e14611086575b600080fd5b34801561014457600080fd5b506101716004803603602081101561015b57600080fd5b81019080803590602001909291905050506110b1565b60405180806020018060200187600a81111561018957fe5b60ff168152602001806020018060200186815260200185810385528b818151815260200191508051906020019080838360005b838110156101d75780820151818401526020810190506101bc565b50505050905090810190601f1680156102045780820380516001836020036101000a031916815260200191505b5085810384528a818151815260200191508051906020019080838360005b8381101561023d578082015181840152602081019050610222565b50505050905090810190601f16801561026a5780820380516001836020036101000a031916815260200191505b50858103835288818151815260200191508051906020019060200280838360005b838110156102a657808201518184015260208101905061028b565b50505050905001858103825287818151815260200191508051906020019060200280838360005b838110156102e85780820151818401526020810190506102cd565b505050509050019a505050505050505050505060405180910390f35b34801561031057600080fd5b5061033d6004803603602081101561032757600080fd5b8101908080359060200190929190505050611375565b6040518080602001828103825283818151815260200191508051906020019060200280838360005b83811015610380578082015181840152602081019050610365565b505050509050019250505060405180910390f35b3480156103a057600080fd5b506103a9611419565b6040518080602001828103825283818151815260200191508051906020019060200280838360005b838110156103ec5780820151818401526020810190506103d1565b505050509050019250505060405180910390f35b34801561040c57600080fd5b506106016004803603608081101561042357600080fd5b81019080803563ffffffff1690602001909291908035906020019064010000000081111561045057600080fd5b82018360208201111561046257600080fd5b8035906020019184600183028401116401000000008311171561048457600080fd5b91908080601f016020809104026020016040519081016040528093929190818152602001838380828437600081840152601f19601f820116905080830192505050505050509192919290803590602001906401000000008111156104e757600080fd5b8201836020820111156104f957600080fd5b8035906020019184600183028401116401000000008311171561051b57600080fd5b91908080601f016020809104026020016040519081016040528093929190818152602001838380828437600081840152601f19601f8201169050808301925050505050505091929192908035906020019064010000000081111561057e57600080fd5b82018360208201111561059057600080fd5b803590602001918460208302840111640100000000831117156105b257600080fd5b919080806020026020016040519081016040528093929190818152602001838360200280828437600081840152601f19601f82011690508083019250505050505050919291929050505061152e565b604051808263ffffffff1663ffffffff16815260200191505060405180910390f35b34801561062f57600080fd5b506106666004803603604081101561064657600080fd5b81019080803590602001909291908035906020019092919050505061199a565b6040518082815260200191505060405180910390f35b34801561068857600080fd5b506106bf6004803603604081101561069f57600080fd5b8101908080359060200190929190803590602001909291905050506119d2565b604051808060200183600a8111156106d357fe5b60ff168152602001828103825284818151815260200191508051906020019080838360005b838110156107135780820151818401526020810190506106f8565b50505050905090810190601f1680156107405780820380516001836020036101000a031916815260200191505b50935050505060405180910390f35b34801561075b57600080fd5b50610764611adf565b6040518082815260200191505060405180910390f35b34801561078657600080fd5b50610ab9600480360360c081101561079d57600080fd5b81019080803590602001906401000000008111156107ba57600080fd5b8201836020820111156107cc57600080fd5b803590602001918460018302840111640100000000831117156107ee57600080fd5b91908080601f016020809104026020016040519081016040528093929190818152602001838380828437600081840152601f19601f8201169050808301925050505050505091929192908035906020019064010000000081111561085157600080fd5b82018360208201111561086357600080fd5b8035906020019184600183028401116401000000008311171561088557600080fd5b91908080601f016020809104026020016040519081016040528093929190818152602001838380828437600081840152601f19601f820116905080830192505050505050509192919290803590602001906401000000008111156108e857600080fd5b8201836020820111156108fa57600080fd5b8035906020019184602083028401116401000000008311171561091c57600080fd5b919080806020026020016040519081016040528093929190818152602001838360200280828437600081840152601f19601f8201169050808301925050505050505091929192908035906020019064010000000081111561097c57600080fd5b82018360208201111561098e57600080fd5b803590602001918460018302840111640100000000831117156109b057600080fd5b91908080601f016020809104026020016040519081016040528093929190818152602001838380828437600081840152601f19601f82011690508083019250505050505050919291929080359060200190640100000000811115610a1357600080fd5b820183602082011115610a2557600080fd5b80359060200191846001830284011164010000000083111715610a4757600080fd5b91908080601f016020809104026020016040519081016040528093929190818152602001838380828437600081840152601f19601f820116905080830192505050505050509192919290803573ffffffffffffffffffffffffffffffffffffffff169060200190929190505050611ae9565b005b348015610ac757600080fd5b50610ad0611fa1565b6040518080602001828103825283818151815260200191508051906020019060200280838360005b83811015610b13578082015181840152602081019050610af8565b505050509050019250505060405180910390f35b610b5360048036036020811015610b3d57600080fd5b8101908080359060200190929190505050612055565b005b348015610b6157600080fd5b50610b8e60048036036020811015610b7857600080fd5b8101908080359060200190929190505050612346565b005b348015610b9c57600080fd5b50610bd660048036036040811015610bb357600080fd5b8101908080359060200190929190803560ff1690602001909291905050506124f0565b005b348015610be457600080fd5b50610c1160048036036020811015610bfb57600080fd5b81019080803590602001909291905050506126f7565b005b348015610c1f57600080fd5b50610c4c60048036036020811015610c3657600080fd5b81019080803590602001909291905050506128a1565b005b348015610c5a57600080fd5b50610c8760048036036020811015610c7157600080fd5b81019080803590602001909291905050506128ab565b005b348015610c9557600080fd5b50610cc260048036036020811015610cac57600080fd5b810190808035906020019092919050505061297d565b005b348015610cd057600080fd5b50610cfd60048036036020811015610ce757600080fd5b8101908080359060200190929190505050612bb4565b604051808215151515815260200191505060405180910390f35b348015610d2357600080fd5b50610d5060048036036020811015610d3a57600080fd5b8101908080359060200190929190505050612bf2565b005b348015610d5e57600080fd5b50610d8b60048036036020811015610d7557600080fd5b8101908080359060200190929190505050612d9c565b604051808215151515815260200191505060405180910390f35b348015610db157600080fd5b50610dde60048036036020811015610dc857600080fd5b8101908080359060200190929190505050612e84565b005b348015610dec57600080fd5b50610e1960048036036020811015610e0357600080fd5b8101908080359060200190929190505050612f57565b604051808473ffffffffffffffffffffffffffffffffffffffff1673ffffffffffffffffffffffffffffffffffffffff1681526020018060200180602001838103835285818151815260200191508051906020019080838360005b83811015610e8f578082015181840152602081019050610e74565b50505050905090810190601f168015610ebc5780820380516001836020036101000a031916815260200191505b50838103825284818151815260200191508051906020019080838360005b83811015610ef5578082015181840152602081019050610eda565b50505050905090810190601f168015610f225780820380516001836020036101000a031916815260200191505b509550505050505060405180910390f35b348015610f3f57600080fd5b50610f6c60048036036020811015610f5657600080fd5b8101908080359060200190929190505050613141565b604051808473ffffffffffffffffffffffffffffffffffffffff1673ffffffffffffffffffffffffffffffffffffffff1681526020018060200180602001838103835285818151815260200191508051906020019080838360005b83811015610fe2578082015181840152602081019050610fc7565b50505050905090810190601f16801561100f5780820380516001836020036101000a031916815260200191505b50838103825284818151815260200191508051906020019080838360005b8381101561104857808201518184015260208101905061102d565b50505050905090810190601f1680156110755780820380516001836020036101000a031916815260200191505b509550505050505060405180910390f35b34801561109257600080fd5b5061109b6132bb565b6040518082815260200191505060405180910390f35b606080600060608060006003600088815260200190815260200160002060010160036000898152602001908152602001600020600201600360008a815260200190815260200160002060030160009054906101000a900460ff16600360008b8152602001908152602001600020600501600360008c8152602001908152602001600020600401600360008d815260200190815260200160002060070154858054600181600116156101000203166002900480601f0160208091040260200160405190810160405280929190818152602001828054600181600116156101000203166002900480156111e35780601f106111b8576101008083540402835291602001916111e3565b820191906000526020600020905b8154815290600101906020018083116111c657829003601f168201915b50505050509550848054600181600116156101000203166002900480601f01602080910402602001604051908101604052809291908181526020018280546001816001161561010002031660029004801561127f5780601f106112545761010080835404028352916020019161127f565b820191906000526020600020905b81548152906001019060200180831161126257829003601f168201915b505050505094508280548060200260200160405190810160405280929190818152602001828054801561130757602002820191906000526020600020905b8160009054906101000a900473ffffffffffffffffffffffffffffffffffffffff1673ffffffffffffffffffffffffffffffffffffffff16815260200190600101908083116112bd575b505050505092508180548060200260200160405190810160405280929190818152602001828054801561135957602002820191906000526020600020905b815481526020019060010190808311611345575b5050505050915095509550955095509550955091939550919395565b60606003600083815260200190815260200160002060050180548060200260200160405190810160405280929190818152602001828054801561140d57602002820191906000526020600020905b8160009054906101000a900473ffffffffffffffffffffffffffffffffffffffff1673ffffffffffffffffffffffffffffffffffffffff16815260200190600101908083116113c3575b50505050509050919050565b606060008090506001600460009054906101000a900463ffffffff160163ffffffff1660405190808252806020026020018201604052801561146a5781602001602082028038833980820191505090505b50915060008090505b600460009054906101000a900463ffffffff1663ffffffff16811015611508576000600a8111156114a057fe5b6003600083815260200190815260200160002060030160009054906101000a900460ff16600a8111156114cf57fe5b14156114fb578083838151811015156114e457fe5b906020019060200201818152505081806001019250505b8080600101915050611473565b506000828281518110151561151957fe5b90602001906020020181815250508191505090565b6000600360008663ffffffff16815260200190815260200160002060090160009054906101000a900460ff1615156115ce576040517f08c379a00000000000000000000000000000000000000000000000000000000081526004018080602001828103825260138152602001807f5061706572206d7573742062652065786973740000000000000000000000000081525060200191505060405180910390fd5b6064835111151515611648576040517f08c379a00000000000000000000000000000000000000000000000000000000081526004018080602001828103825260128152602001807f5469746c6520697320746f6f206c6f6e672e000000000000000000000000000081525060200191505060405180910390fd5b60458451111515156116c2576040517f08c379a00000000000000000000000000000000000000000000000000000000081526004018080602001828103825260118152602001807f49504653204349442069732077726f6e6700000000000000000000000000000081525060200191505060405180910390fd5b60008590506000600360008363ffffffff1681526020019081526020016000206007015490506000600360008463ffffffff16815260200190815260200160002060080160008381526020019081526020016000209050600360008463ffffffff1681526020019081526020016000206002018160010190805460018160011615610100020316600290046117589291906132db565b50600360008463ffffffff16815260200190815260200160002060030160009054906101000a900460ff168160000160006101000a81548160ff0219169083600a8111156117a257fe5b021790555033600360008563ffffffff16815260200190815260200160002060000160046101000a81548173ffffffffffffffffffffffffffffffffffffffff021916908373ffffffffffffffffffffffffffffffffffffffff16021790555085600360008563ffffffff1681526020019081526020016000206001019080519060200190611832929190613362565b5086600360008563ffffffff1681526020019081526020016000206002019080519060200190611863929190613362565b506009600360008563ffffffff16815260200190815260200160002060030160006101000a81548160ff0219169083600a81111561189d57fe5b021790555060008090505b600360008563ffffffff168152602001908152602001600020600401805490508111151561191a57600360008563ffffffff16815260200190815260200160002060040180548015156118f757fe5b6001900381819060005260206000200160009055905580806001019150506118a8565b5084600360008563ffffffff168152602001908152602001600020600401908051906020019061194b9291906133e2565b506001600360008563ffffffff1681526020019081526020016000206007015401600360008563ffffffff16815260200190815260200160002060070181905550829350505050949350505050565b600060036000848152602001908152602001600020600401828154811015156119bf57fe5b9060005260206000200154905092915050565b6060600060036000858152602001908152602001600020600801600084815260200190815260200160002060010160036000868152602001908152602001600020600801600085815260200190815260200160002060000160009054906101000a900460ff16818054600181600116156101000203166002900480601f016020809104026020016040519081016040528092919081815260200182805460018160011615610100020316600290048015611acd5780601f10611aa257610100808354040283529160200191611acd565b820191906000526020600020905b815481529060010190602001808311611ab057829003601f168201915b50505050509150915091509250929050565b6000600554905090565b6064855111151515611b63576040517f08c379a00000000000000000000000000000000000000000000000000000000081526004018080602001828103825260128152602001807f5469746c6520697320746f6f206c6f6e672e000000000000000000000000000081525060200191505060405180910390fd5b6045865111151515611bdd576040517f08c379a00000000000000000000000000000000000000000000000000000000081526004018080602001828103825260118152602001807f49504653204349442069732077726f6e6700000000000000000000000000000081525060200191505060405180910390fd5b6000600460009054906101000a900463ffffffff1690506000600360008363ffffffff16815260200190815260200160002090506060604051908101604052808473ffffffffffffffffffffffffffffffffffffffff168152602001858152602001868152506000808463ffffffff16815260200190815260200160002060008201518160000160006101000a81548173ffffffffffffffffffffffffffffffffffffffff021916908373ffffffffffffffffffffffffffffffffffffffff1602179055506020820151816001019080519060200190611cbe92919061342f565b506040820151816002019080519060200190611cdb92919061342f565b50905050600460009054906101000a900463ffffffff16915060068160030160006101000a81548160ff0219169083600a811115611d1557fe5b0217905550338160000160046101000a81548173ffffffffffffffffffffffffffffffffffffffff021916908373ffffffffffffffffffffffffffffffffffffffff16021790555086816001019080519060200190611d75929190613362565b5087816002019080519060200190611d8e929190613362565b5085816004019080519060200190611da79291906133e2565b50818160000160006101000a81548163ffffffff021916908363ffffffff160217905550600081600601819055506000816007018190555060018160090160006101000a81548160ff0219169083151502179055506004600081819054906101000a900463ffffffff168092919060010191906101000a81548163ffffffff021916908363ffffffff16021790555050600160009054906101000a900473ffffffffffffffffffffffffffffffffffffffff1673ffffffffffffffffffffffffffffffffffffffff166305a8256c83336040518363ffffffff167c0100000000000000000000000000000000000000000000000000000000028152600401808363ffffffff1663ffffffff1681526020018273ffffffffffffffffffffffffffffffffffffffff1673ffffffffffffffffffffffffffffffffffffffff16815260200192505050600060405180830381600087803b158015611f0857600080fd5b505af1158015611f1c573d6000803e3d6000fd5b505050507f0ba135a87c93e3b60d3b44552668699924e9cfb380c953b2f5dbc92892e19f048233604051808363ffffffff1663ffffffff1681526020018273ffffffffffffffffffffffffffffffffffffffff1673ffffffffffffffffffffffffffffffffffffffff1681526020019250505060405180910390a15050505050505050565b606060008090506001600460009054906101000a900463ffffffff160163ffffffff16604051908082528060200260200182016040528015611ff25781602001602082028038833980820191505090505b50915060008090505b600460009054906101000a900463ffffffff1663ffffffff1681101561204d5780838381518110151561202a57fe5b906020019060200201818152505081806001019250508080600101915050611ffb565b508191505090565b6003600082815260200190815260200160002060090160009054906101000a900460ff1615156120ed576040517f08c379a00000000000000000000000000000000000000000000000000000000081526004018080602001828103825260108152602001807f5061706572206d7573742065786973740000000000000000000000000000000081525060200191505060405180910390fd5b6007600a8111156120fa57fe5b6003600083815260200190815260200160002060030160009054906101000a900460ff16600a81111561212957fe5b1415156121c4576040517f08c379a00000000000000000000000000000000000000000000000000000000081526004018080602001828103825260318152602001807f5061706572206d75737420626520696e205041594d454e54207374617475732081526020017f746f206d616b652061207061796d656e7400000000000000000000000000000081525060400191505060405180910390fd5b6706f05b59d3b2000034141515612243576040517f08c379a000000000000000000000000000000000000000000000000000000000815260040180806020018281038252601e8152602001807f506c656173652073656e642065786163746c7920302e352065746865722e000081525060200191505060405180910390fd5b600660009054906101000a900473ffffffffffffffffffffffffffffffffffffffff1673ffffffffffffffffffffffffffffffffffffffff166108fc6706f05b59d3b200009081150290604051600060405180830381858888f193505050501580156122b3573d6000803e3d6000fd5b5060086003600083815260200190815260200160002060030160006101000a81548160ff0219169083600a8111156122e757fe5b02179055503373ffffffffffffffffffffffffffffffffffffffff16817f61ac8e9b735e72d1382cbf7d35f2ff3764dae09d7faf7d90787bf7f9ae76e4c86706f05b59d3b200006040518082815260200191505060405180910390a350565b6003600082815260200190815260200160002060090160009054906101000a900460ff1615156123de576040517f08c379a00000000000000000000000000000000000000000000000000000000081526004018080602001828103825260108152602001807f5061706572206d7573742065786973740000000000000000000000000000000081525060200191505060405180910390fd5b6002600a8111156123eb57fe5b6003600083815260200190815260200160002060030160009054906101000a900460ff16600a81111561241a57fe5b1415156124b5576040517f08c379a00000000000000000000000000000000000000000000000000000000081526004018080602001828103825260368152602001807f5061706572206d75737420626520696e20535542424d4954454420737461747581526020017f7320746f2073656e6420746f207265766965776572730000000000000000000081525060400191505060405180910390fd5b60076003600083815260200190815260200160002060030160006101000a81548160ff0219169083600a8111156124e857fe5b021790555050565b6003600083815260200190815260200160002060090160009054906101000a900460ff161515612588576040517f08c379a00000000000000000000000000000000000000000000000000000000081526004018080602001828103825260138152602001807f5061706572206d7573742062652065786973740000000000000000000000000081525060200191505060405180910390fd5b61259182612d9c565b1515612651576040517f08c379a000000000000000000000000000000000000000000000000000000000815260040180806020018281038252605f8152602001807f5265766965776572206973206e6f742061737369676e656420666f722074686981526020017f732070617065722c206865206d7573742062652061737369676e6564206f6e2081526020017f74686973206265666f7265206368616e67696e6720616e79207374617475730081525060600191505060405180910390fd5b806003600084815260200190815260200160002060030160006101000a81548160ff0219169083600a81111561268357fe5b02179055507f4ea5cd1b98d39e6428aa5cd3553c1f1c14f3116255bab2843a0fa90c74c76f1a8232604051808381526020018273ffffffffffffffffffffffffffffffffffffffff1673ffffffffffffffffffffffffffffffffffffffff1681526020019250505060405180910390a15050565b6003600082815260200190815260200160002060090160009054906101000a900460ff16151561278f576040517f08c379a00000000000000000000000000000000000000000000000000000000081526004018080602001828103825260108152602001807f5061706572206d7573742065786973740000000000000000000000000000000081525060200191505060405180910390fd5b6006600a81111561279c57fe5b6003600083815260200190815260200160002060030160009054906101000a900460ff16600a8111156127cb57fe5b141515612866576040517f08c379a00000000000000000000000000000000000000000000000000000000081526004018080602001828103825260358152602001807f5061706572206d75737420626520696e205355424d495445442073746174757381526020017f20746f2073656e6420746f20726576696577657273000000000000000000000081525060400191505060405180910390fd5b60006003600083815260200190815260200160002060030160006101000a81548160ff0219169083600a81111561289957fe5b021790555050565b8060058190555050565b6003600082815260200190815260200160002060090160009054906101000a900460ff161515612943576040517f08c379a00000000000000000000000000000000000000000000000000000000081526004018080602001828103825260108152602001807f5061706572206d7573742065786973740000000000000000000000000000000081525060200191505060405180910390fd5b600380600083815260200190815260200160002060030160006101000a81548160ff0219169083600a81111561297557fe5b021790555050565b6003600082815260200190815260200160002060090160009054906101000a900460ff161515612a15576040517f08c379a00000000000000000000000000000000000000000000000000000000081526004018080602001828103825260138152602001807f5061706572206d7573742062652065786973740000000000000000000000000081525060200191505060405180910390fd5b612a1e81612d9c565b151515612ab9576040517f08c379a000000000000000000000000000000000000000000000000000000000815260040180806020018281038252602b8152602001807f526576696577657220697320616c72656164792061737369676e656420666f7281526020017f207468697320706170657200000000000000000000000000000000000000000081525060400191505060405180910390fd5b600060036000838152602001908152602001600020600601541415612b115760016003600083815260200190815260200160002060030160006101000a81548160ff0219169083600a811115612b0b57fe5b02179055505b600360008281526020019081526020016000206005013290806001815401808255809150509060018203906000526020600020016000909192909190916101000a81548173ffffffffffffffffffffffffffffffffffffffff021916908373ffffffffffffffffffffffffffffffffffffffff16021790555050600360008281526020019081526020016000206006016000815480929190600101919050555050565b60006003600083815260200190815260200160002060090160009054906101000a900460ff1615612be85760019050612bed565b600090505b919050565b6003600082815260200190815260200160002060090160009054906101000a900460ff161515612c8a576040517f08c379a00000000000000000000000000000000000000000000000000000000081526004018080602001828103825260108152602001807f5061706572206d7573742065786973740000000000000000000000000000000081525060200191505060405180910390fd5b6009600a811115612c9757fe5b6003600083815260200190815260200160002060030160009054906101000a900460ff16600a811115612cc657fe5b141515612d61576040517f08c379a00000000000000000000000000000000000000000000000000000000081526004018080602001828103825260368152602001807f5061706572206d75737420626520696e204d4f4449464945443120737461747581526020017f7320746f2073656e6420746f207265766965776572730000000000000000000081525060400191505060405180910390fd5b60056003600083815260200190815260200160002060030160006101000a81548160ff0219169083600a811115612d9457fe5b021790555050565b60008060036000848152602001908152602001600020600601541115612e7a5760008090505b6003600084815260200190815260200160002060060154811015612e78573273ffffffffffffffffffffffffffffffffffffffff166003600085815260200190815260200160002060050182815481101515612e1a57fe5b9060005260206000200160009054906101000a900473ffffffffffffffffffffffffffffffffffffffff1673ffffffffffffffffffffffffffffffffffffffff161415612e6b576001915050612e7f565b8080600101915050612dc2565b505b600090505b919050565b6003600082815260200190815260200160002060090160009054906101000a900460ff161515612f1c576040517f08c379a00000000000000000000000000000000000000000000000000000000081526004018080602001828103825260108152602001807f5061706572206d7573742065786973740000000000000000000000000000000081525060200191505060405180910390fd5b60046003600083815260200190815260200160002060030160006101000a81548160ff0219169083600a811115612f4f57fe5b021790555050565b6000606080612f646134af565b600080868152602001908152602001600020606060405190810160405290816000820160009054906101000a900473ffffffffffffffffffffffffffffffffffffffff1673ffffffffffffffffffffffffffffffffffffffff1673ffffffffffffffffffffffffffffffffffffffff168152602001600182018054600181600116156101000203166002900480601f0160208091040260200160405190810160405280929190818152602001828054600181600116156101000203166002900480156130715780601f1061304657610100808354040283529160200191613071565b820191906000526020600020905b81548152906001019060200180831161305457829003601f168201915b50505050508152602001600282018054600181600116156101000203166002900480601f0160208091040260200160405190810160405280929190818152602001828054600181600116156101000203166002900480156131135780601f106130e857610100808354040283529160200191613113565b820191906000526020600020905b8154815290600101906020018083116130f657829003601f168201915b5050505050815250509050806000015181602001518260400151819150809050935093509350509193909250565b60006020528060005260406000206000915090508060000160009054906101000a900473ffffffffffffffffffffffffffffffffffffffff1690806001018054600181600116156101000203166002900480601f0160208091040260200160405190810160405280929190818152602001828054600181600116156101000203166002900480156132135780601f106131e857610100808354040283529160200191613213565b820191906000526020600020905b8154815290600101906020018083116131f657829003601f168201915b505050505090806002018054600181600116156101000203166002900480601f0160208091040260200160405190810160405280929190818152602001828054600181600116156101000203166002900480156132b15780601f10613286576101008083540402835291602001916132b1565b820191906000526020600020905b81548152906001019060200180831161329457829003601f168201915b5050505050905083565b6000600460009054906101000a900463ffffffff1663ffffffff16905090565b828054600181600116156101000203166002900490600052602060002090601f016020900481019282601f106133145780548555613351565b8280016001018555821561335157600052602060002091601f016020900482015b82811115613350578254825591600101919060010190613335565b5b50905061335e91906134e7565b5090565b828054600181600116156101000203166002900490600052602060002090601f016020900481019282601f106133a357805160ff19168380011785556133d1565b828001600101855582156133d1579182015b828111156133d05782518255916020019190600101906133b5565b5b5090506133de91906134e7565b5090565b82805482825590600052602060002090810192821561341e579160200282015b8281111561341d578251825591602001919060010190613402565b5b50905061342b919061350c565b5090565b828054600181600116156101000203166002900490600052602060002090601f016020900481019282601f1061347057805160ff191683800117855561349e565b8280016001018555821561349e579182015b8281111561349d578251825591602001919060010190613482565b5b5090506134ab91906134e7565b5090565b606060405190810160405280600073ffffffffffffffffffffffffffffffffffffffff16815260200160608152602001606081525090565b61350991905b808211156135055760008160009055506001016134ed565b5090565b90565b61352e91905b8082111561352a576000816000905550600101613512565b5090565b9056fea165627a7a72305820217009230fe84b117cb66e403307bdf5a88d1cca190c7ae92804c5224f73a7130029",
  "source": "pragma solidity ^0.5.0;\r\nimport \"./Authors.sol\";\r\n\r\n\r\ncontract Papers {\r\n     struct SubmitterDetails {\r\n        address submitterAddress;\r\n        string submitterName;\r\n        string submitterRole;\r\n    }\r\n\r\n    mapping(uint => SubmitterDetails) public submitterDetails;\r\n    event submittedPaper(uint32 paperid,address useraccount);\r\n    event assignedReviewerEvent(uint paperid,address useraccount);\r\n    event PaymentMade(uint indexed paperId, address indexed payer, uint amount);\r\n    Authors authorsContractObj;\r\n    address authorContractAddress;\r\n    enum PaperStatus {LATEST,REVIEWING,PASSED,RESUBMIT,REJECTED,MODIFIED,SUBMITED,PAYMENT,PUBLISHED,MODIFIED1,NONE}\r\n    struct History {\r\n        PaperStatus status;\r\n        string ipfs_cid;\r\n    }\r\n    struct PaperFiles\r\n    {\r\n        uint32 paperUniqueNumber;\r\n        address author;\r\n        string title;\r\n        string ipfs_cid;\r\n        PaperStatus status;\r\n        bytes32 [] keywords; //experiment: [\"0x63616e6469646174653100000000000000000000000000000000000000000000\",\"0x6332000000000000000000000000000000000000000000000000000000000000\",\"0x6333000000000000000000000000000000000000000000000000000000000000\"]\r\n\r\n        address [] reviewers;\r\n        uint    totalReviewer;\r\n        uint version_number;\r\n\r\n        mapping(uint=> History)  versionHistory;\r\n\r\n        bool paperExist;\r\n    }\r\n    mapping(uint=> PaperFiles) private paperFiles;\r\n\r\n    uint32 totalPapers; // represent id as well\r\n\r\n    bytes32 testingBytes; // testing variable\r\n    address payable owner;\r\n    constructor(address _authorContractAddress) public {\r\n        totalPapers = 0;\r\n        authorContractAddress =_authorContractAddress;\r\n        authorsContractObj = Authors(authorContractAddress);\r\n        owner = msg.sender;\r\n    }\r\n    function uploadNewPaper(string memory _ipfs, string memory _title, bytes32[] memory _keywords, string memory _submitterRole, string memory _userName,address _paperOwner) public {\r\n        require(bytes(_title).length <= 100, \"Title is too long.\");\r\n        require(bytes(_ipfs).length <= 69, \"IPFS CID is wrong\");\r\n\r\n        uint32 paperId = totalPapers;\r\n        PaperFiles storage updateP = paperFiles[paperId];\r\n\r\n        submitterDetails[paperId] = SubmitterDetails({\r\n            submitterAddress: _paperOwner,\r\n            submitterName: _userName,\r\n            submitterRole: _submitterRole\r\n        });\r\n\r\n        //LATEST PAPER\r\n        paperId = totalPapers; //new paper id\r\n        updateP.status = PaperStatus.SUBMITED;\r\n        updateP.author = msg.sender;\r\n        updateP.title = _title;\r\n        updateP.ipfs_cid = _ipfs;\r\n        updateP.keywords = _keywords;\r\n        updateP.paperUniqueNumber = paperId;\r\n        updateP.totalReviewer = 0;\r\n        updateP.version_number = 0;\r\n        updateP.paperExist = true;\r\n        totalPapers++;\r\n\r\n        authorsContractObj.addPaperInUserFolder(paperId, msg.sender);\r\n        emit submittedPaper(paperId, msg.sender);\r\n    }\r\n\r\n    function getSubmitterDetails(uint _paperId) public view returns (address, string memory, string memory) {\r\n        SubmitterDetails memory details = submitterDetails[_paperId];\r\n        return (details.submitterAddress, details.submitterName, details.submitterRole);\r\n    }\r\n    function uploadModifiedPaper(uint32 _paper_id,string memory _ipfs,string memory _title,bytes32[] memory _keywords) public returns(uint32)\r\n    {\r\n\r\n        require(paperFiles[_paper_id].paperExist,\"Paper must be exist\");\r\n\r\n        require(bytes(_title).length <= 100, \"Title is too long.\");\r\n        require(bytes(_ipfs).length <= 69, \"IPFS CID is wrong\");\r\n\r\n        uint32 paperId = _paper_id;\r\n        uint oldversion = paperFiles[paperId].version_number;\r\n        History storage updateH =  paperFiles[paperId].versionHistory[oldversion];\r\n        updateH.ipfs_cid = paperFiles[paperId].ipfs_cid; // save old ipfs id\r\n        updateH.status = paperFiles[paperId].status; // save old ipfs status\r\n        paperFiles[paperId].author = msg.sender; // again add author name\r\n        paperFiles[paperId].title = _title; // change title name if required\r\n        paperFiles[paperId].ipfs_cid = _ipfs; // new ipfs\r\n        paperFiles[paperId].status = PaperStatus.MODIFIED1;\r\n        for(uint loop = 0; loop<=paperFiles[paperId].keywords.length;loop++)\r\n            paperFiles[paperId].keywords.pop();\r\n        paperFiles[paperId].keywords = _keywords;\r\n        paperFiles[paperId].version_number = paperFiles[paperId].version_number + 1 ;\r\n\r\n        return paperId;\r\n    }\r\n    function getLatestId() public view returns(uint)\r\n    {\r\n        return totalPapers;\r\n    }\r\n    function getPaperValues(uint _paperId) public view returns(string memory title,string memory ipfscid,PaperStatus status,address[] memory reviewers,bytes32[] memory keywords,uint version)\r\n    {\r\n        return (paperFiles[_paperId].title,paperFiles[_paperId].ipfs_cid,paperFiles[_paperId].status,paperFiles[_paperId].reviewers,paperFiles[_paperId].keywords, paperFiles[_paperId].version_number);\r\n    }\r\n    function getVersionHistory(uint _paperId,uint version_number) public view returns(string memory,PaperStatus )\r\n    {\r\n        return (paperFiles[_paperId].versionHistory[version_number].ipfs_cid,paperFiles[_paperId].versionHistory[version_number].status);\r\n    }\r\n    function getPaperKeyword(uint _paperId,uint keywordIndex) public view returns(bytes32)\r\n    {\r\n        return paperFiles[_paperId].keywords[keywordIndex];\r\n    }\r\n    function getSetBytes32Test(bytes32 para1) public\r\n    {\r\n        testingBytes = para1;\r\n    }\r\n    function getBytes32Test() public view returns(bytes32)\r\n    {\r\n        return testingBytes;\r\n    }\r\n    function getAllLatestPapersIds() public view returns(uint[] memory ids)\r\n    {\r\n        uint index = 0;\r\n        ids = new uint[](totalPapers+1);\r\n\r\n        for(uint loop=0; loop<totalPapers;loop++)\r\n        {\r\n            if(paperFiles[loop].status == PaperStatus.LATEST)\r\n            {\r\n                ids[index] = loop;\r\n                index++;\r\n            }\r\n        }\r\n\r\n        ids[index] = 0; //end of array\r\n\r\n        return ids;\r\n    }\r\n    function getAllPapersIds() public view returns(uint[] memory ids)\r\n    {\r\n        uint index = 0;\r\n        ids = new uint[](totalPapers+1);\r\n\r\n        for(uint loop=0; loop<totalPapers;loop++)\r\n        {\r\n            ids[index] = loop;\r\n            index++;\r\n        }\r\n\r\n        // ids[index] = 0; //end of array\r\n\r\n        return ids;\r\n    }\r\n\r\n    function isPaperExist(uint _paperId) public view returns (bool ret)\r\n    {\r\n        if(paperFiles[_paperId].paperExist)\r\n            return true;\r\n\r\n        return false;\r\n    }\r\n    function isReviewerAlreadyAssigned(uint _paperId) public view returns(bool ret)\r\n    {\r\n        if(paperFiles[_paperId].totalReviewer>0)\r\n        {\r\n            // check if this reviewer exist already inside this paper\r\n            for(uint loop =0; loop<paperFiles[_paperId].totalReviewer; loop++)\r\n            {\r\n                if(paperFiles[_paperId].reviewers[loop]==tx.origin)\r\n                {\r\n                    return true;\r\n                }\r\n            }\r\n        }\r\n\r\n        return false;\r\n    }\r\n    function assignReviewerToPaper(uint _paperId) public\r\n    {\r\n        require(paperFiles[_paperId].paperExist,\"Paper must be exist\");\r\n\r\n        require(!isReviewerAlreadyAssigned(_paperId),\"Reviewer is already assigned for this paper\");\r\n\r\n        if(paperFiles[_paperId].totalReviewer==0)\r\n        {\r\n            paperFiles[_paperId].status = PaperStatus.REVIEWING;\r\n        }\r\n\r\n        paperFiles[_paperId].reviewers.push(tx.origin);\r\n\r\n        paperFiles[_paperId].totalReviewer++;\r\n\r\n    }\r\n    function setPaperStatusByReviewer(uint _paperId,PaperStatus _status) public\r\n    {\r\n        require(paperFiles[_paperId].paperExist,\"Paper must be exist\");\r\n        require(isReviewerAlreadyAssigned(_paperId),\"Reviewer is not assigned for this paper, he must be assigned on this before changing any status\");\r\n\r\n        paperFiles[_paperId].status = _status;\r\n\r\n        emit assignedReviewerEvent(_paperId,tx.origin);\r\n    }\r\n    function getReviewers(uint _paperId) public view returns (address[] memory) {\r\n        return paperFiles[_paperId].reviewers;\r\n    }\r\n    function sendToReviewer(uint _paperId) public {\r\n        require(paperFiles[_paperId].paperExist, \"Paper must exist\");\r\n        require(paperFiles[_paperId].status == PaperStatus.SUBMITED, \"Paper must be in SUBMITED status to send to reviewers\");\r\n\r\n        paperFiles[_paperId].status = PaperStatus.LATEST;\r\n    }\r\n    function sendModifiedToReviewer(uint _paperId) public {\r\n        require(paperFiles[_paperId].paperExist, \"Paper must exist\");\r\n        require(paperFiles[_paperId].status == PaperStatus.MODIFIED1, \"Paper must be in MODIFIED1 status to send to reviewers\");\r\n\r\n        paperFiles[_paperId].status = PaperStatus.MODIFIED;\r\n    }\r\n    function rejectPaper(uint _paperId) public {\r\n        require(paperFiles[_paperId].paperExist, \"Paper must exist\");\r\n\r\n\r\n        paperFiles[_paperId].status = PaperStatus.REJECTED;\r\n\r\n       \r\n       \r\n    }\r\n    function sendForReSubmission(uint _paperId) public {\r\n        require(paperFiles[_paperId].paperExist, \"Paper must exist\");\r\n\r\n\r\n        paperFiles[_paperId].status = PaperStatus.RESUBMIT;\r\n\r\n       \r\n       \r\n    }\r\n    function askForPayment(uint _paperId) public {\r\n        require(paperFiles[_paperId].paperExist, \"Paper must exist\");\r\n        require(paperFiles[_paperId].status == PaperStatus.PASSED, \"Paper must be in SUBBMITED status to send to reviewers\");\r\n\r\n        paperFiles[_paperId].status = PaperStatus.PAYMENT;\r\n\r\n        \r\n       \r\n    }\r\n    function makePayment(uint _paperId) public payable {\r\n    require(paperFiles[_paperId].paperExist, \"Paper must exist\");\r\n    require(paperFiles[_paperId].status == PaperStatus.PAYMENT, \"Paper must be in PAYMENT status to make a payment\");\r\n\r\n    // Ensure that the sender sends exactly 0.5 ether\r\n    require(msg.value == 0.5 ether, \"Please send exactly 0.5 ether.\");\r\n\r\n    // Transfer the payment to the owner\r\n    owner.transfer(0.5 ether); // Fixed amount of 0.5 ether\r\n\r\n    // Update the paper status\r\n    paperFiles[_paperId].status = PaperStatus.PUBLISHED;\r\n\r\n    emit PaymentMade(_paperId, msg.sender, 0.5 ether);\r\n}\r\n\r\n\r\n\r\n}\r\n",
  "sourcePath": "E:\\Final project\\Final project\\truffle\\contracts\\papers.sol",
  "compiler": {
    "name": "solc",
    "version": "0.5.0+commit.1d4f565a.Emscripten.clang"
  },
  "schemaVersion": "3.4.16",
  "updatedAt": "2024-03-22T13:12:28.355Z",
  "networkType": "ethereum",
  "devdoc": {
    "methods": {}
  },
  "userdoc": {
    "methods": {}
  }
}