{
  "contractName": "Publisher",
  "abi": [
    {
      "inputs": [
        {
          "name": "_authorContractAddress",
          "type": "address"
        }
      ],
      "payable": false,
      "stateMutability": "nonpayable",
      "type": "constructor"
    },
    {
      "anonymous": false,
      "inputs": [
        {
          "indexed": false,
          "name": "paperid",
          "type": "uint32"
        },
        {
          "indexed": false,
          "name": "useraccount",
          "type": "address"
        }
      ],
      "name": "submittedPaper",
      "type": "event"
    },
    {
      "anonymous": false,
      "inputs": [
        {
          "indexed": false,
          "name": "paperid",
          "type": "uint256"
        },
        {
          "indexed": false,
          "name": "useraccount",
          "type": "address"
        }
      ],
      "name": "assignedReviewerEvent",
      "type": "event"
    },
    {
      "constant": false,
      "inputs": [
        {
          "name": "_ipfs",
          "type": "string"
        },
        {
          "name": "_title",
          "type": "string"
        },
        {
          "name": "_keywords",
          "type": "bytes32[]"
        }
      ],
      "name": "uploadNewPaper",
      "outputs": [],
      "payable": false,
      "stateMutability": "nonpayable",
      "type": "function"
    },
    {
      "constant": false,
      "inputs": [
        {
          "name": "_paper_id",
          "type": "uint32"
        },
        {
          "name": "_ipfs",
          "type": "string"
        },
        {
          "name": "_title",
          "type": "string"
        },
        {
          "name": "_keywords",
          "type": "bytes32[]"
        }
      ],
      "name": "uploadModifiedPaper",
      "outputs": [
        {
          "name": "",
          "type": "uint32"
        }
      ],
      "payable": false,
      "stateMutability": "nonpayable",
      "type": "function"
    },
    {
      "constant": true,
      "inputs": [],
      "name": "getLatestId",
      "outputs": [
        {
          "name": "",
          "type": "uint256"
        }
      ],
      "payable": false,
      "stateMutability": "view",
      "type": "function"
    },
    {
      "constant": true,
      "inputs": [
        {
          "name": "_paperId",
          "type": "uint256"
        }
      ],
      "name": "getPaperValues",
      "outputs": [
        {
          "name": "title",
          "type": "string"
        },
        {
          "name": "ipfscid",
          "type": "string"
        },
        {
          "name": "author",
          "type": "address"
        },
        {
          "name": "status",
          "type": "uint8"
        },
        {
          "name": "reviewers",
          "type": "address[]"
        },
        {
          "name": "keywords",
          "type": "bytes32[]"
        },
        {
          "name": "version",
          "type": "uint256"
        }
      ],
      "payable": false,
      "stateMutability": "view",
      "type": "function"
    },
    {
      "constant": true,
      "inputs": [
        {
          "name": "_paperId",
          "type": "uint256"
        },
        {
          "name": "version_number",
          "type": "uint256"
        }
      ],
      "name": "getVersionHistory",
      "outputs": [
        {
          "name": "",
          "type": "string"
        },
        {
          "name": "",
          "type": "uint8"
        }
      ],
      "payable": false,
      "stateMutability": "view",
      "type": "function"
    },
    {
      "constant": true,
      "inputs": [
        {
          "name": "_paperId",
          "type": "uint256"
        },
        {
          "name": "keywordIndex",
          "type": "uint256"
        }
      ],
      "name": "getPaperKeyword",
      "outputs": [
        {
          "name": "",
          "type": "bytes32"
        }
      ],
      "payable": false,
      "stateMutability": "view",
      "type": "function"
    },
    {
      "constant": false,
      "inputs": [
        {
          "name": "para1",
          "type": "bytes32"
        }
      ],
      "name": "getSetBytes32Test",
      "outputs": [],
      "payable": false,
      "stateMutability": "nonpayable",
      "type": "function"
    },
    {
      "constant": true,
      "inputs": [],
      "name": "getBytes32Test",
      "outputs": [
        {
          "name": "",
          "type": "bytes32"
        }
      ],
      "payable": false,
      "stateMutability": "view",
      "type": "function"
    },
    {
      "constant": true,
      "inputs": [],
      "name": "getAllLatestPapersIds",
      "outputs": [
        {
          "name": "ids",
          "type": "uint256[]"
        }
      ],
      "payable": false,
      "stateMutability": "view",
      "type": "function"
    },
    {
      "constant": true,
      "inputs": [],
      "name": "getAllPapersIds",
      "outputs": [
        {
          "name": "ids",
          "type": "uint256[]"
        }
      ],
      "payable": false,
      "stateMutability": "view",
      "type": "function"
    },
    {
      "constant": true,
      "inputs": [
        {
          "name": "_paperId",
          "type": "uint256"
        }
      ],
      "name": "isPaperExist",
      "outputs": [
        {
          "name": "ret",
          "type": "bool"
        }
      ],
      "payable": false,
      "stateMutability": "view",
      "type": "function"
    },
    {
      "constant": true,
      "inputs": [
        {
          "name": "_paperId",
          "type": "uint256"
        }
      ],
      "name": "isReviewerAlreadyAssigned",
      "outputs": [
        {
          "name": "ret",
          "type": "bool"
        }
      ],
      "payable": false,
      "stateMutability": "view",
      "type": "function"
    },
    {
      "constant": false,
      "inputs": [
        {
          "name": "_paperId",
          "type": "uint256"
        }
      ],
      "name": "assignReviewerToPaper",
      "outputs": [],
      "payable": false,
      "stateMutability": "nonpayable",
      "type": "function"
    },
    {
      "constant": false,
      "inputs": [
        {
          "name": "_paperId",
          "type": "uint256"
        },
        {
          "name": "_status",
          "type": "uint8"
        }
      ],
      "name": "setPaperStatusByReviewer",
      "outputs": [],
      "payable": false,
      "stateMutability": "nonpayable",
      "type": "function"
    }
  ],
  "bytecode": "0x608060405234801561001057600080fd5b506040516020806121808339810180604052602081101561003057600080fd5b81019080805190602001909291905050506000600360006101000a81548163ffffffff021916908363ffffffff16021790555080600160006101000a81548173ffffffffffffffffffffffffffffffffffffffff021916908373ffffffffffffffffffffffffffffffffffffffff160217905550600160009054906101000a900473ffffffffffffffffffffffffffffffffffffffff166000806101000a81548173ffffffffffffffffffffffffffffffffffffffff021916908373ffffffffffffffffffffffffffffffffffffffff1602179055505061206a806101166000396000f3fe6080604052600436106100d0576000357c0100000000000000000000000000000000000000000000000000000000900463ffffffff16806302a6afc8146100d557806316a36e5e146102d45780631ac7f217146103405780631ef580aa146105635780633af95f9c146105bc5780633fc1c34e1461068f57806342d8fca9146106ba5780635f19d96314610726578063698e4f541461091957806395a1831214610961578063aaef39e71461099c578063b4066614146109d7578063c8d0e05a14610a2a578063eff91c7e14610a7d575b600080fd5b3480156100e157600080fd5b5061010e600480360360208110156100f857600080fd5b8101908080359060200190929190505050610aa8565b6040518080602001806020018873ffffffffffffffffffffffffffffffffffffffff1673ffffffffffffffffffffffffffffffffffffffff16815260200187600681111561015857fe5b60ff168152602001806020018060200186815260200185810385528c818151815260200191508051906020019080838360005b838110156101a657808201518184015260208101905061018b565b50505050905090810190601f1680156101d35780820380516001836020036101000a031916815260200191505b5085810384528b818151815260200191508051906020019080838360005b8381101561020c5780820151818401526020810190506101f1565b50505050905090810190601f1680156102395780820380516001836020036101000a031916815260200191505b50858103835288818151815260200191508051906020019060200280838360005b8381101561027557808201518184015260208101905061025a565b50505050905001858103825287818151815260200191508051906020019060200280838360005b838110156102b757808201518184015260208101905061029c565b505050509050019b50505050505050505050505060405180910390f35b3480156102e057600080fd5b506102e9610da8565b6040518080602001828103825283818151815260200191508051906020019060200280838360005b8381101561032c578082015181840152602081019050610311565b505050509050019250505060405180910390f35b34801561034c57600080fd5b506105416004803603608081101561036357600080fd5b81019080803563ffffffff1690602001909291908035906020019064010000000081111561039057600080fd5b8201836020820111156103a257600080fd5b803590602001918460018302840111640100000000831117156103c457600080fd5b91908080601f016020809104026020016040519081016040528093929190818152602001838380828437600081840152601f19601f8201169050808301925050505050505091929192908035906020019064010000000081111561042757600080fd5b82018360208201111561043957600080fd5b8035906020019184600183028401116401000000008311171561045b57600080fd5b91908080601f016020809104026020016040519081016040528093929190818152602001838380828437600081840152601f19601f820116905080830192505050505050509192919290803590602001906401000000008111156104be57600080fd5b8201836020820111156104d057600080fd5b803590602001918460208302840111640100000000831117156104f257600080fd5b919080806020026020016040519081016040528093929190818152602001838360200280828437600081840152601f19601f820116905080830192505050505050509192919290505050610ebd565b604051808263ffffffff1663ffffffff16815260200191505060405180910390f35b34801561056f57600080fd5b506105a66004803603604081101561058657600080fd5b810190808035906020019092919080359060200190929190505050611329565b6040518082815260200191505060405180910390f35b3480156105c857600080fd5b506105ff600480360360408110156105df57600080fd5b810190808035906020019092919080359060200190929190505050611361565b604051808060200183600681111561061357fe5b60ff168152602001828103825284818151815260200191508051906020019080838360005b83811015610653578082015181840152602081019050610638565b50505050905090810190601f1680156106805780820380516001836020036101000a031916815260200191505b50935050505060405180910390f35b34801561069b57600080fd5b506106a461146e565b6040518082815260200191505060405180910390f35b3480156106c657600080fd5b506106cf611478565b6040518080602001828103825283818151815260200191508051906020019060200280838360005b838110156107125780820151818401526020810190506106f7565b505050509050019250505060405180910390f35b34801561073257600080fd5b506109176004803603606081101561074957600080fd5b810190808035906020019064010000000081111561076657600080fd5b82018360208201111561077857600080fd5b8035906020019184600183028401116401000000008311171561079a57600080fd5b91908080601f016020809104026020016040519081016040528093929190818152602001838380828437600081840152601f19601f820116905080830192505050505050509192919290803590602001906401000000008111156107fd57600080fd5b82018360208201111561080f57600080fd5b8035906020019184600183028401116401000000008311171561083157600080fd5b91908080601f016020809104026020016040519081016040528093929190818152602001838380828437600081840152601f19601f8201169050808301925050505050505091929192908035906020019064010000000081111561089457600080fd5b8201836020820111156108a657600080fd5b803590602001918460208302840111640100000000831117156108c857600080fd5b919080806020026020016040519081016040528093929190818152602001838360200280828437600081840152601f19601f82011690508083019250505050505050919291929050505061152c565b005b34801561092557600080fd5b5061095f6004803603604081101561093c57600080fd5b8101908080359060200190929190803560ff169060200190929190505050611912565b005b34801561096d57600080fd5b5061099a6004803603602081101561098457600080fd5b8101908080359060200190929190505050611b19565b005b3480156109a857600080fd5b506109d5600480360360208110156109bf57600080fd5b8101908080359060200190929190505050611b23565b005b3480156109e357600080fd5b50610a10600480360360208110156109fa57600080fd5b8101908080359060200190929190505050611d5a565b604051808215151515815260200191505060405180910390f35b348015610a3657600080fd5b50610a6360048036036020811015610a4d57600080fd5b8101908080359060200190929190505050611d98565b604051808215151515815260200191505060405180910390f35b348015610a8957600080fd5b50610a92611e80565b6040518082815260200191505060405180910390f35b606080600080606080600060026000898152602001908152602001600020600101600260008a8152602001908152602001600020600201600260008b815260200190815260200160002060000160049054906101000a900473ffffffffffffffffffffffffffffffffffffffff16600260008c815260200190815260200160002060030160009054906101000a900460ff16600260008d8152602001908152602001600020600501600260008e8152602001908152602001600020600401600260008f815260200190815260200160002060070154868054600181600116156101000203166002900480601f016020809104026020016040519081016040528092919081815260200182805460018160011615610100020316600290048015610c125780601f10610be757610100808354040283529160200191610c12565b820191906000526020600020905b815481529060010190602001808311610bf557829003601f168201915b50505050509650858054600181600116156101000203166002900480601f016020809104026020016040519081016040528092919081815260200182805460018160011615610100020316600290048015610cae5780601f10610c8357610100808354040283529160200191610cae565b820191906000526020600020905b815481529060010190602001808311610c9157829003601f168201915b5050505050955082805480602002602001604051908101604052809291908181526020018280548015610d3657602002820191906000526020600020905b8160009054906101000a900473ffffffffffffffffffffffffffffffffffffffff1673ffffffffffffffffffffffffffffffffffffffff1681526020019060010190808311610cec575b5050505050925081805480602002602001604051908101604052809291908181526020018280548015610d8857602002820191906000526020600020905b815481526020019060010190808311610d74575b505050505091509650965096509650965096509650919395979092949650565b606060008090506001600360009054906101000a900463ffffffff160163ffffffff16604051908082528060200260200182016040528015610df95781602001602082028038833980820191505090505b50915060008090505b600360009054906101000a900463ffffffff1663ffffffff16811015610e975760006006811115610e2f57fe5b6002600083815260200190815260200160002060030160009054906101000a900460ff166006811115610e5e57fe5b1415610e8a57808383815181101515610e7357fe5b906020019060200201818152505081806001019250505b8080600101915050610e02565b5060008282815181101515610ea857fe5b90602001906020020181815250508191505090565b6000600260008663ffffffff16815260200190815260200160002060090160009054906101000a900460ff161515610f5d576040517f08c379a00000000000000000000000000000000000000000000000000000000081526004018080602001828103825260138152602001807f5061706572206d7573742062652065786973740000000000000000000000000081525060200191505060405180910390fd5b6064835111151515610fd7576040517f08c379a00000000000000000000000000000000000000000000000000000000081526004018080602001828103825260128152602001807f5469746c6520697320746f6f206c6f6e672e000000000000000000000000000081525060200191505060405180910390fd5b6045845111151515611051576040517f08c379a00000000000000000000000000000000000000000000000000000000081526004018080602001828103825260118152602001807f49504653204349442069732077726f6e6700000000000000000000000000000081525060200191505060405180910390fd5b60008590506000600260008363ffffffff1681526020019081526020016000206007015490506000600260008463ffffffff16815260200190815260200160002060080160008381526020019081526020016000209050600260008463ffffffff1681526020019081526020016000206002018160010190805460018160011615610100020316600290046110e7929190611ea0565b50600260008463ffffffff16815260200190815260200160002060030160009054906101000a900460ff168160000160006101000a81548160ff0219169083600681111561113157fe5b021790555033600260008563ffffffff16815260200190815260200160002060000160046101000a81548173ffffffffffffffffffffffffffffffffffffffff021916908373ffffffffffffffffffffffffffffffffffffffff16021790555085600260008563ffffffff16815260200190815260200160002060010190805190602001906111c1929190611f27565b5086600260008563ffffffff16815260200190815260200160002060020190805190602001906111f2929190611f27565b506005600260008563ffffffff16815260200190815260200160002060030160006101000a81548160ff0219169083600681111561122c57fe5b021790555060008090505b600260008563ffffffff16815260200190815260200160002060040180549050811115156112a957600260008563ffffffff168152602001908152602001600020600401805480151561128657fe5b600190038181906000526020600020016000905590558080600101915050611237565b5084600260008563ffffffff16815260200190815260200160002060040190805190602001906112da929190611fa7565b506001600260008563ffffffff1681526020019081526020016000206007015401600260008563ffffffff16815260200190815260200160002060070181905550829350505050949350505050565b6000600260008481526020019081526020016000206004018281548110151561134e57fe5b9060005260206000200154905092915050565b6060600060026000858152602001908152602001600020600801600084815260200190815260200160002060010160026000868152602001908152602001600020600801600085815260200190815260200160002060000160009054906101000a900460ff16818054600181600116156101000203166002900480601f01602080910402602001604051908101604052809291908181526020018280546001816001161561010002031660029004801561145c5780601f106114315761010080835404028352916020019161145c565b820191906000526020600020905b81548152906001019060200180831161143f57829003601f168201915b50505050509150915091509250929050565b6000600454905090565b606060008090506001600360009054906101000a900463ffffffff160163ffffffff166040519080825280602002602001820160405280156114c95781602001602082028038833980820191505090505b50915060008090505b600360009054906101000a900463ffffffff1663ffffffff168110156115245780838381518110151561150157fe5b9060200190602002018181525050818060010192505080806001019150506114d2565b508191505090565b60648251111515156115a6576040517f08c379a00000000000000000000000000000000000000000000000000000000081526004018080602001828103825260128152602001807f5469746c6520697320746f6f206c6f6e672e000000000000000000000000000081525060200191505060405180910390fd5b6045835111151515611620576040517f08c379a00000000000000000000000000000000000000000000000000000000081526004018080602001828103825260118152602001807f49504653204349442069732077726f6e6700000000000000000000000000000081525060200191505060405180910390fd5b6000600360009054906101000a900463ffffffff1690506000600260008363ffffffff1681526020019081526020016000209050600360009054906101000a900463ffffffff16915060008160030160006101000a81548160ff0219169083600681111561168a57fe5b0217905550338160000160046101000a81548173ffffffffffffffffffffffffffffffffffffffff021916908373ffffffffffffffffffffffffffffffffffffffff160217905550838160010190805190602001906116ea929190611f27565b5084816002019080519060200190611703929190611f27565b508281600401908051906020019061171c929190611fa7565b50818160000160006101000a81548163ffffffff021916908363ffffffff160217905550600081600601819055506000816007018190555060018160090160006101000a81548160ff0219169083151502179055506003600081819054906101000a900463ffffffff168092919060010191906101000a81548163ffffffff021916908363ffffffff160217905550506000809054906101000a900473ffffffffffffffffffffffffffffffffffffffff1673ffffffffffffffffffffffffffffffffffffffff166305a8256c83336040518363ffffffff167c0100000000000000000000000000000000000000000000000000000000028152600401808363ffffffff1663ffffffff1681526020018273ffffffffffffffffffffffffffffffffffffffff1673ffffffffffffffffffffffffffffffffffffffff16815260200192505050600060405180830381600087803b15801561187c57600080fd5b505af1158015611890573d6000803e3d6000fd5b505050507f0ba135a87c93e3b60d3b44552668699924e9cfb380c953b2f5dbc92892e19f048233604051808363ffffffff1663ffffffff1681526020018273ffffffffffffffffffffffffffffffffffffffff1673ffffffffffffffffffffffffffffffffffffffff1681526020019250505060405180910390a15050505050565b6002600083815260200190815260200160002060090160009054906101000a900460ff1615156119aa576040517f08c379a00000000000000000000000000000000000000000000000000000000081526004018080602001828103825260138152602001807f5061706572206d7573742062652065786973740000000000000000000000000081525060200191505060405180910390fd5b6119b382611d98565b1515611a73576040517f08c379a000000000000000000000000000000000000000000000000000000000815260040180806020018281038252605f8152602001807f5265766965776572206973206e6f742061737369676e656420666f722074686981526020017f732070617065722c206865206d7573742062652061737369676e6564206f6e2081526020017f74686973206265666f7265206368616e67696e6720616e79207374617475730081525060600191505060405180910390fd5b806002600084815260200190815260200160002060030160006101000a81548160ff02191690836006811115611aa557fe5b02179055507f4ea5cd1b98d39e6428aa5cd3553c1f1c14f3116255bab2843a0fa90c74c76f1a8232604051808381526020018273ffffffffffffffffffffffffffffffffffffffff1673ffffffffffffffffffffffffffffffffffffffff1681526020019250505060405180910390a15050565b8060048190555050565b6002600082815260200190815260200160002060090160009054906101000a900460ff161515611bbb576040517f08c379a00000000000000000000000000000000000000000000000000000000081526004018080602001828103825260138152602001807f5061706572206d7573742062652065786973740000000000000000000000000081525060200191505060405180910390fd5b611bc481611d98565b151515611c5f576040517f08c379a000000000000000000000000000000000000000000000000000000000815260040180806020018281038252602b8152602001807f526576696577657220697320616c72656164792061737369676e656420666f7281526020017f207468697320706170657200000000000000000000000000000000000000000081525060400191505060405180910390fd5b600060026000838152602001908152602001600020600601541415611cb75760016002600083815260200190815260200160002060030160006101000a81548160ff02191690836006811115611cb157fe5b02179055505b600260008281526020019081526020016000206005013290806001815401808255809150509060018203906000526020600020016000909192909190916101000a81548173ffffffffffffffffffffffffffffffffffffffff021916908373ffffffffffffffffffffffffffffffffffffffff16021790555050600260008281526020019081526020016000206006016000815480929190600101919050555050565b60006002600083815260200190815260200160002060090160009054906101000a900460ff1615611d8e5760019050611d93565b600090505b919050565b60008060026000848152602001908152602001600020600601541115611e765760008090505b6002600084815260200190815260200160002060060154811015611e74573273ffffffffffffffffffffffffffffffffffffffff166002600085815260200190815260200160002060050182815481101515611e1657fe5b9060005260206000200160009054906101000a900473ffffffffffffffffffffffffffffffffffffffff1673ffffffffffffffffffffffffffffffffffffffff161415611e67576001915050611e7b565b8080600101915050611dbe565b505b600090505b919050565b6000600360009054906101000a900463ffffffff1663ffffffff16905090565b828054600181600116156101000203166002900490600052602060002090601f016020900481019282601f10611ed95780548555611f16565b82800160010185558215611f1657600052602060002091601f016020900482015b82811115611f15578254825591600101919060010190611efa565b5b509050611f239190611ff4565b5090565b828054600181600116156101000203166002900490600052602060002090601f016020900481019282601f10611f6857805160ff1916838001178555611f96565b82800160010185558215611f96579182015b82811115611f95578251825591602001919060010190611f7a565b5b509050611fa39190611ff4565b5090565b828054828255906000526020600020908101928215611fe3579160200282015b82811115611fe2578251825591602001919060010190611fc7565b5b509050611ff09190612019565b5090565b61201691905b80821115612012576000816000905550600101611ffa565b5090565b90565b61203b91905b8082111561203757600081600090555060010161201f565b5090565b9056fea165627a7a7230582026158365135850fcceed3560c8e1d9acf19f5488373dc6e90617216e21b5b09a0029",
  "source": "pragma solidity ^0.5.0;\r\nimport \"./Authors.sol\";\r\n\r\n\r\ncontract Publisher{\r\n\r\n    // events\r\n    event submittedPaper(uint32 paperid,address useraccount);\r\n    event assignedReviewerEvent(uint paperid,address useraccount);\r\n\r\n\r\n\r\n    // author contract object\r\n    Authors authorsContractObj;\r\n\r\n    // author contract deployed address\r\n    address authorContractAddress;\r\n\r\n\r\n    // enum states\r\n    enum PaperStatus {LATEST,REVIEWING,PASSED,RESUBMIT,REJECTED,MODIFIED,NONE}\r\n\r\n    // history information which contains the author's previous paper status and previous file stored on the IPFS server\r\n    struct History {\r\n        PaperStatus status;\r\n        string ipfs_cid;\r\n    }\r\n\r\n    // Paper structure\r\n    struct PaperFiles\r\n    {\r\n        // always unique assigned number to the paper\r\n        uint32 paperUniqueNumber; // must be unique\r\n\r\n        // New state of the paper\r\n        address author;\r\n        string title;\r\n        string ipfs_cid;\r\n\r\n        // reviewing data\r\n        PaperStatus status;\r\n\r\n        // Every paper has more than one keywords or tags assoiciated with it (String must be converted to bytes32 )\r\n        bytes32 [] keywords; //experiment: [\"0x63616e6469646174653100000000000000000000000000000000000000000000\",\"0x6332000000000000000000000000000000000000000000000000000000000000\",\"0x6333000000000000000000000000000000000000000000000000000000000000\"]\r\n\r\n        address [] reviewers;\r\n        uint    totalReviewer;\r\n\r\n        //put old state in this array associated with version number (which should be incremented on every modification)\r\n        // old state should be inserted when new state is ready\r\n        uint version_number; //should be incremeneted\r\n\r\n        mapping(uint=> History)  versionHistory;\r\n\r\n        bool paperExist;\r\n    }\r\n\r\n    // unique PaperID is associated with its information in PaperFiles structure which has version and other info\r\n    mapping(uint=> PaperFiles) private paperFiles;\r\n\r\n    uint32 totalPapers; // represent id as well\r\n\r\n    bytes32 testingBytes; // testing variable\r\n\r\n\r\n    /** @dev the constructor simply gets the author contract address and store it in the authors contract object.\r\n     *       this address is later used for initializing the author contract.\r\n     * @param   _authorContractAddress must be the existing deployed Author contract address\r\n     */\r\n    constructor(address _authorContractAddress) public {\r\n        totalPapers = 0;\r\n        authorContractAddress =_authorContractAddress;\r\n        authorsContractObj = Authors(authorContractAddress);\r\n    }\r\n\r\n\r\n\r\n    /** @dev uploadNewPaper - This function adds a new paper information by taking all the paper related information\r\n     *                         from the caller.\r\n     * then it stores them by associating it with the new paper id.\r\n     * @param  _ipfs  newly added ipfs based file hash CID\r\n     * @param  _title the title of the paper\r\n     * @param  _keywords string keywords for the paper in bytes32\r\n     */\r\n    function uploadNewPaper(string memory _ipfs,string memory _title,bytes32[] memory _keywords) public\r\n    {\r\n        //   _keywords[0] =0x63616e6469646174653100000000000000000000000000000000000000000000; //always remmember we cant insert  value like this\r\n        // but you can get the value using         bytes32 keywordFirst= updateP.keywords[0];\r\n        // updateP.keywords.push(0x63616e6469646174653100000000000000000000000000000000000000000000); // always use this way to insert\r\n        // updateP.keywords.push(0x43316e6469646174653100000000000000000000000000000000000000000000); // always use this way to insert\r\n        require(bytes(_title).length <= 100, \"Title is too long.\");\r\n        require(bytes(_ipfs).length <= 69, \"IPFS CID is wrong\");\r\n\r\n        uint32 paperId = totalPapers;\r\n        PaperFiles storage updateP = paperFiles[paperId];\r\n\r\n        //LATEST PAPER\r\n        paperId = totalPapers; //new paper id\r\n        updateP.status = PaperStatus.LATEST;\r\n        updateP.author = msg.sender;\r\n        updateP.title = _title;\r\n        updateP.ipfs_cid = _ipfs;\r\n        updateP.keywords = _keywords;\r\n        updateP.paperUniqueNumber = paperId;\r\n        updateP.totalReviewer = 0;\r\n        updateP.version_number = 0;\r\n        updateP.paperExist = true;\r\n        totalPapers++;\r\n\r\n        authorsContractObj.addPaperInUserFolder(paperId,msg.sender);\r\n        emit submittedPaper(paperId,msg.sender);\r\n    }\r\n\r\n    /** @dev uploadModifiedPaper - This function takes new information and stored against the existing paperid\r\n     * then it stores them by associating it with the new paper id.\r\n     * @param  _paper_id  existing paper id\r\n     * @param  _ipfs  newly added ipfs based file hash CID\r\n     * @param  _title the title of the paper\r\n     * @param  _keywords string keywords for the paper in bytes32\r\n     */\r\n    function uploadModifiedPaper(uint32 _paper_id,string memory _ipfs,string memory _title,bytes32[] memory _keywords) public returns(uint32)\r\n    {\r\n        //   _keywords[0] =0x63616e6469646174653100000000000000000000000000000000000000000000; //always remmember we cant insert  value like this\r\n        // but you can get the value using         bytes32 keywordFirst= updateP.keywords[0];\r\n        // updateP.keywords.push(0x63616e6469646174653100000000000000000000000000000000000000000000); // always use this way to insert\r\n        // updateP.keywords.push(0x43316e6469646174653100000000000000000000000000000000000000000000); // always use this way to insert\r\n\r\n        require(paperFiles[_paper_id].paperExist,\"Paper must be exist\");\r\n\r\n        require(bytes(_title).length <= 100, \"Title is too long.\");\r\n        require(bytes(_ipfs).length <= 69, \"IPFS CID is wrong\");\r\n\r\n        uint32 paperId = _paper_id;\r\n        uint oldversion = paperFiles[paperId].version_number;\r\n\r\n        History storage updateH =  paperFiles[paperId].versionHistory[oldversion];\r\n\r\n        // Since we never assing anything to version history therefore we need to have a seprate variable\r\n        updateH.ipfs_cid = paperFiles[paperId].ipfs_cid; // save old ipfs id\r\n        updateH.status = paperFiles[paperId].status; // save old ipfs status\r\n\r\n        //Since we have this existting object in our array so we will directly call the structure to update\r\n        paperFiles[paperId].author = msg.sender; // again add author name\r\n        paperFiles[paperId].title = _title; // change title name if required\r\n        paperFiles[paperId].ipfs_cid = _ipfs; // new ipfs\r\n        paperFiles[paperId].status = PaperStatus.MODIFIED;\r\n\r\n        // remove all the previous keywords which this paper had\r\n        for(uint loop = 0; loop<=paperFiles[paperId].keywords.length;loop++)\r\n            paperFiles[paperId].keywords.pop();\r\n\r\n        // add the new keywords\r\n        paperFiles[paperId].keywords = _keywords;\r\n\r\n        // add the new version id\r\n        paperFiles[paperId].version_number = paperFiles[paperId].version_number + 1 ; // increase the version number\r\n\r\n        return paperId;\r\n    }\r\n\r\n\r\n    /** @dev getLatestId - This function  only returns the number of papers on the paper contract\r\n     * @return uint  returns the total stored papers\r\n     */\r\n    function getLatestId() public view returns(uint)\r\n    {\r\n        return totalPapers;\r\n    }\r\n\r\n    /** @dev getPaperValues - This function returns the paper attributes associated with its paper id\r\n     * @param _paperId  paper id\r\n     * @return string _title the title of the paper\r\n     * @return string _ipfs  ipfs based file hash CID\r\n     * @return address author  author address of the associated paper\r\n     * @return PaperStatus status the status of the paper\r\n     * @return address[]  reviewers the array of reviewer addresses\r\n     * @return bytes32[]  keywords  the keywords attached to the paper\r\n     * @return uint     version    the current paper version\r\n       */\r\n    function getPaperValues(uint _paperId) public view returns(string memory title,string memory ipfscid,address author,PaperStatus status,address[] memory reviewers,bytes32[] memory keywords,uint version)\r\n    {\r\n        return (paperFiles[_paperId].title,paperFiles[_paperId].ipfs_cid,paperFiles[_paperId].author,paperFiles[_paperId].status,paperFiles[_paperId].reviewers,paperFiles[_paperId].keywords, paperFiles[_paperId].version_number);\r\n    }\r\n\r\n    /** @dev getVersionHistory - This function returns the author's old paper ipfs hash cid and its status.\r\n     * @param _paperId  paper id\r\n     * @param version_number  number of the version\r\n     * @return string _ipfs  ipfs based file hash CID\r\n     * @return PaperStatus status the status of the paper\r\n     */\r\n    function getVersionHistory(uint _paperId,uint version_number) public view returns(string memory,PaperStatus )\r\n    {\r\n        return (paperFiles[_paperId].versionHistory[version_number].ipfs_cid,paperFiles[_paperId].versionHistory[version_number].status);\r\n    }\r\n\r\n    /** @dev getPaperKeyword - This function returns the keyword value\r\n     * @param _paperId  paper id\r\n     * @param keywordIndex  the index of the keyword you are looking for(Make sure index exist)\r\n     * @return bytes32  the keyword value\r\n     */\r\n    function getPaperKeyword(uint _paperId,uint keywordIndex) public view returns(bytes32)\r\n    {\r\n        return paperFiles[_paperId].keywords[keywordIndex];\r\n    }\r\n\r\n    /** @dev getSetBytes32Test - testing function\r\n    */\r\n    function getSetBytes32Test(bytes32 para1) public\r\n    {\r\n        testingBytes = para1;\r\n    }\r\n\r\n    /** @dev getBytes32Test - testing function\r\n    */\r\n    function getBytes32Test() public view returns(bytes32)\r\n    {\r\n        return testingBytes;\r\n    }\r\n\r\n    /** @dev getAllLatestPapersIds - This function returns only the latest paper ids.\r\n    * @return uint[] paperids  the array of latest paper ids.\r\n    */\r\n    function getAllLatestPapersIds() public view returns(uint[] memory ids)\r\n    {\r\n        uint index = 0;\r\n        ids = new uint[](totalPapers+1);\r\n\r\n        for(uint loop=0; loop<totalPapers;loop++)\r\n        {\r\n            if(paperFiles[loop].status == PaperStatus.LATEST)\r\n            {\r\n                ids[index] = loop;\r\n                index++;\r\n            }\r\n        }\r\n\r\n        ids[index] = 0; //end of array\r\n\r\n        return ids;\r\n    }\r\n\r\n\r\n    /** @dev getAllPapersIds - This function returns all the stored paper ids regardless their status\r\n   * @return uint[] paperids  the array of latest paper ids.\r\n   */\r\n    function getAllPapersIds() public view returns(uint[] memory ids)\r\n    {\r\n        uint index = 0;\r\n        ids = new uint[](totalPapers+1);\r\n\r\n        for(uint loop=0; loop<totalPapers;loop++)\r\n        {\r\n            ids[index] = loop;\r\n            index++;\r\n        }\r\n\r\n        // ids[index] = 0; //end of array\r\n\r\n        return ids;\r\n    }\r\n\r\n\r\n    /** @dev isPaperExist - This function verify if the paper id exist in the paper contract or not.\r\n    * @param _paperId  the paper id\r\n    * @return bool          returns true if paper id exist otherwise false.\r\n    */\r\n    function isPaperExist(uint _paperId) public view returns (bool ret)\r\n    {\r\n        if(paperFiles[_paperId].paperExist)\r\n            return true;\r\n\r\n        return false;\r\n    }\r\n\r\n\r\n    /** @dev isReviewerAlreadyAssigned - Verify if the caller who wants to get assigned on this paper is already assigned\r\n    * on this paper. Otherwise return false.\r\n    * @param _paperId  the paper id\r\n    * @return bool          returns true if the reviewer is already assigned on this paper id otherwise false.\r\n    */\r\n    function isReviewerAlreadyAssigned(uint _paperId) public view returns(bool ret)\r\n    {\r\n        if(paperFiles[_paperId].totalReviewer>0)\r\n        {\r\n            // check if this reviewer exist already inside this paper\r\n            for(uint loop =0; loop<paperFiles[_paperId].totalReviewer; loop++)\r\n            {\r\n                if(paperFiles[_paperId].reviewers[loop]==tx.origin)\r\n                {\r\n                    return true;\r\n                }\r\n            }\r\n        }\r\n\r\n        return false;\r\n    }\r\n\r\n    // All below functions must be called by Reviewer contract ================================================================\r\n\r\n    /** @dev assignReviewerToPaper - This function assign the caller to the paper as a reviewer. This function will only be called\r\n      * by the reviewer contract.\r\n      * @param _paperId  the paper id\r\n      */\r\n    function assignReviewerToPaper(uint _paperId) public\r\n    {\r\n        require(paperFiles[_paperId].paperExist,\"Paper must be exist\");\r\n\r\n        require(!isReviewerAlreadyAssigned(_paperId),\"Reviewer is already assigned for this paper\");\r\n\r\n        if(paperFiles[_paperId].totalReviewer==0)\r\n        {\r\n            paperFiles[_paperId].status = PaperStatus.REVIEWING;\r\n        }\r\n\r\n        paperFiles[_paperId].reviewers.push(tx.origin);\r\n\r\n        paperFiles[_paperId].totalReviewer++;\r\n\r\n    }\r\n\r\n    /** @dev setPaperStatusByReviewer - This function allows the reviewer to set the new status for the paper associated with paper id\r\n      * by the reviewer contract.\r\n      * @param _paperId  the paper id\r\n      * @param _status the new status to be set for the paper\r\n      */\r\n    function setPaperStatusByReviewer(uint _paperId,PaperStatus _status) public\r\n    {\r\n        require(paperFiles[_paperId].paperExist,\"Paper must be exist\");\r\n        require(isReviewerAlreadyAssigned(_paperId),\"Reviewer is not assigned for this paper, he must be assigned on this before changing any status\");\r\n\r\n        paperFiles[_paperId].status = _status;\r\n\r\n        emit assignedReviewerEvent(_paperId,tx.origin);\r\n    }\r\n\r\n}\r\n",
  "sourcePath": "C:\\Users\\maneesha reddy\\OneDrive\\Desktop\\Final project\\truffle\\contracts\\Publisher.sol",
  "compiler": {
    "name": "solc",
    "version": "0.5.0+commit.1d4f565a.Emscripten.clang"
  },
  "schemaVersion": "3.4.14",
  "updatedAt": "2024-03-11T13:17:13.822Z",
  "devdoc": {
    "methods": {
      "assignReviewerToPaper(uint256)": {
        "details": "assignReviewerToPaper - This function assign the caller to the paper as a reviewer. This function will only be called\r by the reviewer contract.\r",
        "params": {
          "_paperId": "the paper id\r"
        }
      },
      "constructor": {
        "details": "the constructor simply gets the author contract address and store it in the authors contract object.\r      this address is later used for initializing the author contract.\r",
        "params": {
          "_authorContractAddress": "must be the existing deployed Author contract address\r"
        }
      },
      "getAllLatestPapersIds()": {
        "details": "getAllLatestPapersIds - This function returns only the latest paper ids.\r",
        "return": "uint[] paperids  the array of latest paper ids.\r"
      },
      "getAllPapersIds()": {
        "details": "getAllPapersIds - This function returns all the stored paper ids regardless their status\r",
        "return": "uint[] paperids  the array of latest paper ids.\r"
      },
      "getBytes32Test()": {
        "details": "getBytes32Test - testing function\r"
      },
      "getLatestId()": {
        "details": "getLatestId - This function  only returns the number of papers on the paper contract\r",
        "return": "uint  returns the total stored papers\r"
      },
      "getPaperKeyword(uint256,uint256)": {
        "details": "getPaperKeyword - This function returns the keyword value\r",
        "params": {
          "_paperId": "paper id\r",
          "keywordIndex": "the index of the keyword you are looking for(Make sure index exist)\r"
        },
        "return": "bytes32  the keyword value\r"
      },
      "getPaperValues(uint256)": {
        "details": "getPaperValues - This function returns the paper attributes associated with its paper id\r",
        "params": {
          "_paperId": "paper id\r"
        },
        "return": "string _title the title of the paper\rstring _ipfs  ipfs based file hash CID\raddress author  author address of the associated paper\rPaperStatus status the status of the paper\raddress[]  reviewers the array of reviewer addresses\rbytes32[]  keywords  the keywords attached to the paper\ruint     version    the current paper version\r"
      },
      "getSetBytes32Test(bytes32)": {
        "details": "getSetBytes32Test - testing function\r"
      },
      "getVersionHistory(uint256,uint256)": {
        "details": "getVersionHistory - This function returns the author's old paper ipfs hash cid and its status.\r",
        "params": {
          "_paperId": "paper id\r",
          "version_number": "number of the version\r"
        },
        "return": "string _ipfs  ipfs based file hash CID\rPaperStatus status the status of the paper\r"
      },
      "isPaperExist(uint256)": {
        "details": "isPaperExist - This function verify if the paper id exist in the paper contract or not.\r",
        "params": {
          "_paperId": "the paper id\r"
        },
        "return": "bool          returns true if paper id exist otherwise false.\r"
      },
      "isReviewerAlreadyAssigned(uint256)": {
        "details": "isReviewerAlreadyAssigned - Verify if the caller who wants to get assigned on this paper is already assigned\r on this paper. Otherwise return false.\r",
        "params": {
          "_paperId": "the paper id\r"
        },
        "return": "bool          returns true if the reviewer is already assigned on this paper id otherwise false.\r"
      },
      "setPaperStatusByReviewer(uint256,uint8)": {
        "details": "setPaperStatusByReviewer - This function allows the reviewer to set the new status for the paper associated with paper id\r by the reviewer contract.\r",
        "params": {
          "_paperId": "the paper id\r",
          "_status": "the new status to be set for the paper\r"
        }
      },
      "uploadModifiedPaper(uint32,string,string,bytes32[])": {
        "details": "uploadModifiedPaper - This function takes new information and stored against the existing paperid\r then it stores them by associating it with the new paper id.\r",
        "params": {
          "_ipfs": "newly added ipfs based file hash CID\r",
          "_keywords": "string keywords for the paper in bytes32\r",
          "_paper_id": "existing paper id\r",
          "_title": "the title of the paper\r"
        }
      },
      "uploadNewPaper(string,string,bytes32[])": {
        "details": "uploadNewPaper - This function adds a new paper information by taking all the paper related information\r                        from the caller.\r then it stores them by associating it with the new paper id.\r",
        "params": {
          "_ipfs": "newly added ipfs based file hash CID\r",
          "_keywords": "string keywords for the paper in bytes32\r",
          "_title": "the title of the paper\r"
        }
      }
    }
  },
  "userdoc": {
    "methods": {}
  }
}